{"contracts/DPP.sol":{"DPP":{"abi":[{"inputs":[],"name":"InvalidOwner","type":"error"},{"inputs":[{"internalType":"bytes32","name":"passportId","type":"bytes32"}],"name":"PassportAlreadyExists","type":"error"},{"inputs":[{"internalType":"bytes32","name":"passportId","type":"bytes32"}],"name":"PassportAlreadyInactive","type":"error"},{"inputs":[{"internalType":"bytes32","name":"passportId","type":"bytes32"}],"name":"PassportNotFound","type":"error"},{"inputs":[],"name":"Unauthorized","type":"error"},{"anonymous":false,"inputs":[{"indexed":true,"internalType":"bytes32","name":"passportId","type":"bytes32"},{"indexed":true,"internalType":"bytes32","name":"certType","type":"bytes32"},{"indexed":true,"internalType":"address","name":"issuer","type":"address"},{"indexed":false,"internalType":"string","name":"certificationHash","type":"string"},{"indexed":false,"internalType":"uint256","name":"issuedAt","type":"uint256"},{"indexed":false,"internalType":"uint256","name":"expiresAt","type":"uint256"}],"name":"PassportCertificationAttached","type":"event"},{"anonymous":false,"inputs":[{"indexed":true,"internalType":"bytes32","name":"passportId","type":"bytes32"},{"indexed":true,"internalType":"string","name":"batchId","type":"string"},{"indexed":true,"internalType":"address","name":"owner","type":"address"},{"indexed":false,"internalType":"string","name":"product","type":"string"},{"indexed":false,"internalType":"string","name":"origin","type":"string"},{"indexed":false,"internalType":"uint256","name":"createdAt","type":"uint256"}],"name":"PassportCreated","type":"event"},{"anonymous":false,"inputs":[{"indexed":true,"internalType":"bytes32","name":"passportId","type":"bytes32"},{"indexed":true,"internalType":"bytes32","name":"reasonCode","type":"bytes32"},{"indexed":true,"internalType":"address","name":"deactivatedBy","type":"address"},{"indexed":false,"internalType":"uint256","name":"deactivatedAt","type":"uint256"}],"name":"PassportDeactivated","type":"event"},{"anonymous":false,"inputs":[{"indexed":true,"internalType":"bytes32","name":"passportId","type":"bytes32"},{"indexed":true,"internalType":"bytes32","name":"eventType","type":"bytes32"},{"indexed":true,"internalType":"address","name":"actor","type":"address"},{"indexed":false,"internalType":"string","name":"locationCode","type":"string"},{"indexed":false,"internalType":"uint256","name":"eventTimestamp","type":"uint256"},{"indexed":false,"internalType":"string","name":"payloadHash","type":"string"}],"name":"PassportEventRecorded","type":"event"},{"anonymous":false,"inputs":[{"indexed":true,"internalType":"bytes32","name":"passportId","type":"bytes32"},{"indexed":true,"internalType":"bytes32","name":"fieldMask","type":"bytes32"},{"indexed":true,"internalType":"address","name":"updatedBy","type":"address"},{"indexed":false,"internalType":"string","name":"metadataHash","type":"string"},{"indexed":false,"internalType":"uint256","name":"updatedAt","type":"uint256"}],"name":"PassportMetadataUpdated","type":"event"},{"anonymous":false,"inputs":[{"indexed":true,"internalType":"bytes32","name":"passportId","type":"bytes32"},{"indexed":true,"internalType":"address","name":"previousOwner","type":"address"},{"indexed":true,"internalType":"address","name":"newOwner","type":"address"},{"indexed":false,"internalType":"uint256","name":"transferredAt","type":"uint256"}],"name":"PassportOwnershipTransferred","type":"event"},{"anonymous":false,"inputs":[{"indexed":true,"internalType":"bytes32","name":"passportId","type":"bytes32"},{"indexed":true,"internalType":"address","name":"updatedBy","type":"address"},{"indexed":false,"internalType":"bool","name":"previousActive","type":"bool"},{"indexed":false,"internalType":"bool","name":"active","type":"bool"},{"indexed":false,"internalType":"uint256","name":"updatedAt","type":"uint256"}],"name":"PassportStatusUpdated","type":"event"},{"inputs":[{"internalType":"bytes32","name":"passportId","type":"bytes32"},{"internalType":"bytes32","name":"certType","type":"bytes32"},{"internalType":"string","name":"certificationHash","type":"string"},{"internalType":"uint256","name":"issuedAt","type":"uint256"},{"internalType":"uint256","name":"expiresAt","type":"uint256"}],"name":"attachPassportCertification","outputs":[],"stateMutability":"nonpayable","type":"function"},{"inputs":[{"internalType":"bytes32","name":"passportId","type":"bytes32"},{"internalType":"string","name":"batchId","type":"string"},{"internalType":"string","name":"product","type":"string"},{"internalType":"string","name":"origin","type":"string"}],"name":"createPassport","outputs":[],"stateMutability":"nonpayable","type":"function"},{"inputs":[{"internalType":"bytes32","name":"passportId","type":"bytes32"},{"internalType":"bytes32","name":"reasonCode","type":"bytes32"}],"name":"deactivatePassport","outputs":[],"stateMutability":"nonpayable","type":"function"},{"inputs":[{"internalType":"bytes32","name":"passportId","type":"bytes32"}],"name":"getPassport","outputs":[{"components":[{"internalType":"string","name":"batchId","type":"string"},{"internalType":"string","name":"product","type":"string"},{"internalType":"string","name":"origin","type":"string"},{"internalType":"string","name":"metadataHash","type":"string"},{"internalType":"address","name":"owner","type":"address"},{"internalType":"bool","name":"active","type":"bool"},{"internalType":"uint256","name":"createdAt","type":"uint256"}],"internalType":"struct DPP.Passport","name":"","type":"tuple"}],"stateMutability":"view","type":"function"},{"inputs":[{"internalType":"bytes32","name":"passportId","type":"bytes32"},{"internalType":"bytes32","name":"eventType","type":"bytes32"},{"internalType":"address","name":"actor","type":"address"},{"internalType":"string","name":"locationCode","type":"string"},{"internalType":"uint256","name":"eventTimestamp","type":"uint256"},{"internalType":"string","name":"payloadHash","type":"string"}],"name":"recordPassportEvent","outputs":[],"stateMutability":"nonpayable","type":"function"},{"inputs":[{"internalType":"bytes32","name":"passportId","type":"bytes32"},{"internalType":"bool","name":"active","type":"bool"}],"name":"setPassportStatus","outputs":[],"stateMutability":"nonpayable","type":"function"},{"inputs":[{"internalType":"bytes32","name":"passportId","type":"bytes32"},{"internalType":"address","name":"newOwner","type":"address"}],"name":"transferPassportOwnership","outputs":[],"stateMutability":"nonpayable","type":"function"},{"inputs":[{"internalType":"bytes32","name":"passportId","type":"bytes32"},{"internalType":"bytes32","name":"fieldMask","type":"bytes32"},{"internalType":"string","name":"metadataHash","type":"string"}],"name":"updatePassportMetadata","outputs":[],"stateMutability":"nonpayable","type":"function"}],"evm":{"bytecode":{"linkReferences":{},"object":"6080604052348015600f57600080fd5b506112c58061001f6000396000f3fe608060405234801561001057600080fd5b50600436106100885760003560e01c80639cb040df1161005b5780639cb040df146100db578063c6424078146100ee578063f227fa2314610101578063f7260f361461012a57600080fd5b80631e96e9161461008d5780634b528881146100a257806352ddd4a7146100b557806370247af6146100c8575b600080fd5b6100a061009b366004610bbf565b61013d565b005b6100a06100b0366004610c8b565b610357565b6100a06100c3366004610cb7565b610449565b6100a06100d6366004610d59565b610501565b6100a06100e9366004610dbe565b6105a4565b6100a06100fc366004610df3565b61067d565b61011461010f366004610e46565b61073d565b6040516101219190610ea5565b60405180910390f35b6100a0610138366004610f58565b610a48565b600087815260208190526040902060050154156101755760405163234db95360e21b8152600481018890526024015b60405180910390fd5b6040518060e0016040528087878080601f016020809104026020016040519081016040528093929190818152602001838380828437600092019190915250505090825250604080516020601f880181900481028201810190925286815291810191908790879081908401838280828437600092019190915250505090825250604080516020601f86018190048102820181019092528481529181019190859085908190840183828082843760009201829052509385525050604080516020818101835284825280860191909152338286015260016060860152426080909501949094528b83529282905250208151819061026f9082611019565b50602082015160018201906102849082611019565b50604082015160028201906102999082611019565b50606082015160038201906102ae9082611019565b50608082015160048201805460a08501511515600160a01b026001600160a81b03199091166001600160a01b039093169290921791909117905560c090910151600590910155604051339061030690889088906110d8565b6040518091039020887f8353bcbe13520b321081913ad06133fffbada245427b7f0c219cbbe2b5128c578787878742604051610346959493929190611111565b60405180910390a450505050505050565b6000828152602081905260408120600581015490910361038d57604051636893053760e01b81526004810184905260240161016c565b60048101546001600160a01b031633146103b9576040516282b42960e81b815260040160405180910390fd5b6001600160a01b0382166103e0576040516349e27cff60e01b815260040160405180910390fd5b6004810180546001600160a01b038481166001600160a01b03198316811790935560405191169190829086907f33f60d30efad3723ff728301c94717f979275d8b2dc499f5666d8bd7277aeeca9061043b9042815260200190565b60405180910390a450505050565b6000888152602081905260408120600581015490910361047f57604051636893053760e01b8152600481018a905260240161016c565b60048101546001600160a01b031633146104ab576040516282b42960e81b815260040160405180910390fd5b866001600160a01b0316888a7fc7ab26b97d998b38930b5a96ede955d6b68ba693cf4fca5300be1aa2ec95c3bf89898989896040516104ee95949392919061114b565b60405180910390a4505050505050505050565b6000868152602081905260408120600581015490910361053757604051636893053760e01b81526004810188905260240161016c565b60048101546001600160a01b03163314610563576040516282b42960e81b815260040160405180910390fd5b336001600160a01b031686887fe78acd3400d25792e2754bcd3eda83347dd05b17be9aa35c45db9630fa37ede5888888886040516103469493929190611184565b600082815260208190526040812060058101549091036105da57604051636893053760e01b81526004810184905260240161016c565b60048101546001600160a01b03163314610606576040516282b42960e81b815260040160405180910390fd5b600481018054831515600160a01b81810260ff60a01b198416179093556040805160ff9490930493909316801515835260208301919091524292820192909252339085907f961a7883eef0d6e34bfded64103763471810e8bba3a6ed61aee5117c5c82581c9060600160405180910390a350505050565b600084815260208190526040812060058101549091036106b357604051636893053760e01b81526004810186905260240161016c565b60048101546001600160a01b031633146106df576040516282b42960e81b815260040160405180910390fd5b600381016106ee8385836111ab565b50336001600160a01b031684867fad9162c0af636ab08cdaf4d7f7b4cfb3776886f11255f50752384598a48ff2dc86864260405161072e9392919061126b565b60405180910390a45050505050565b6107886040518060e001604052806060815260200160608152602001606081526020016060815260200160006001600160a01b03168152602001600015158152602001600081525090565b600082815260208190526040808220815160e081019092528054829082906107af90610f90565b80601f01602080910402602001604051908101604052809291908181526020018280546107db90610f90565b80156108285780601f106107fd57610100808354040283529160200191610828565b820191906000526020600020905b81548152906001019060200180831161080b57829003601f168201915b5050505050815260200160018201805461084190610f90565b80601f016020809104026020016040519081016040528092919081815260200182805461086d90610f90565b80156108ba5780601f1061088f576101008083540402835291602001916108ba565b820191906000526020600020905b81548152906001019060200180831161089d57829003601f168201915b505050505081526020016002820180546108d390610f90565b80601f01602080910402602001604051908101604052809291908181526020018280546108ff90610f90565b801561094c5780601f106109215761010080835404028352916020019161094c565b820191906000526020600020905b81548152906001019060200180831161092f57829003601f168201915b5050505050815260200160038201805461096590610f90565b80601f016020809104026020016040519081016040528092919081815260200182805461099190610f90565b80156109de5780601f106109b3576101008083540402835291602001916109de565b820191906000526020600020905b8154815290600101906020018083116109c157829003601f168201915b505050918352505060048201546001600160a01b0381166020830152600160a01b900460ff161515604082015260059091015460609091015260c0810151909150600003610a4257604051636893053760e01b81526004810184905260240161016c565b92915050565b60008281526020819052604081206005810154909103610a7e57604051636893053760e01b81526004810184905260240161016c565b60048101546001600160a01b03163314610aaa576040516282b42960e81b815260040160405180910390fd5b6004810154600160a01b900460ff16610ad9576040516345f27bfb60e11b81526004810184905260240161016c565b60048101805460ff60a01b1916905560408051600181526000602082015242818301529051339185917f961a7883eef0d6e34bfded64103763471810e8bba3a6ed61aee5117c5c82581c9181900360600190a3336001600160a01b031682847f92855a5d6c73853ee1f6cd454478d3c3c7eb96f42a881e9590a8d357569a3e5442604051610b6991815260200190565b60405180910390a4505050565b60008083601f840112610b8857600080fd5b50813567ffffffffffffffff811115610ba057600080fd5b602083019150836020828501011115610bb857600080fd5b9250929050565b60008060008060008060006080888a031215610bda57600080fd5b87359650602088013567ffffffffffffffff811115610bf857600080fd5b610c048a828b01610b76565b909750955050604088013567ffffffffffffffff811115610c2457600080fd5b610c308a828b01610b76565b909550935050606088013567ffffffffffffffff811115610c5057600080fd5b610c5c8a828b01610b76565b989b979a50959850939692959293505050565b80356001600160a01b0381168114610c8657600080fd5b919050565b60008060408385031215610c9e57600080fd5b82359150610cae60208401610c6f565b90509250929050565b60008060008060008060008060c0898b031215610cd357600080fd5b8835975060208901359650610cea60408a01610c6f565b9550606089013567ffffffffffffffff811115610d0657600080fd5b610d128b828c01610b76565b9096509450506080890135925060a089013567ffffffffffffffff811115610d3957600080fd5b610d458b828c01610b76565b999c989b5096995094979396929594505050565b60008060008060008060a08789031215610d7257600080fd5b8635955060208701359450604087013567ffffffffffffffff811115610d9757600080fd5b610da389828a01610b76565b979a9699509760608101359660809091013595509350505050565b60008060408385031215610dd157600080fd5b8235915060208301358015158114610de857600080fd5b809150509250929050565b60008060008060608587031215610e0957600080fd5b8435935060208501359250604085013567ffffffffffffffff811115610e2e57600080fd5b610e3a87828801610b76565b95989497509550505050565b600060208284031215610e5857600080fd5b5035919050565b6000815180845260005b81811015610e8557602081850181015186830182015201610e69565b506000602082860101526020601f19601f83011685010191505092915050565b602081526000825160e06020840152610ec2610100840182610e5f565b90506020840151601f19848303016040850152610edf8282610e5f565b9150506040840151601f19848303016060850152610efd8282610e5f565b9150506060840151601f19848303016080850152610f1b8282610e5f565b91505060018060a01b0360808501511660a084015260a0840151610f4360c085018215159052565b5060c084015160e08401528091505092915050565b60008060408385031215610f6b57600080fd5b50508035926020909101359150565b634e487b7160e01b600052604160045260246000fd5b600181811c90821680610fa457607f821691505b602082108103610fc457634e487b7160e01b600052602260045260246000fd5b50919050565b601f82111561101457806000526020600020601f840160051c81016020851015610ff15750805b601f840160051c820191505b818110156110115760008155600101610ffd565b50505b505050565b815167ffffffffffffffff81111561103357611033610f7a565b611047816110418454610f90565b84610fca565b6020601f82116001811461107b57600083156110635750848201515b600019600385901b1c1916600184901b178455611011565b600084815260208120601f198516915b828110156110ab578785015182556020948501946001909201910161108b565b50848210156110c95786840151600019600387901b60f8161c191681555b50505050600190811b01905550565b8183823760009101908152919050565b81835281816020850137506000828201602090810191909152601f909101601f19169091010190565b6060815260006111256060830187896110e8565b82810360208401526111388186886110e8565b9150508260408301529695505050505050565b60608152600061115f6060830187896110e8565b85602084015282810360408401526111788185876110e8565b98975050505050505050565b6060815260006111986060830186886110e8565b6020830194909452506040015292915050565b67ffffffffffffffff8311156111c3576111c3610f7a565b6111d7836111d18354610f90565b83610fca565b6000601f84116001811461120b57600085156111f35750838201355b600019600387901b1c1916600186901b178355611011565b600083815260209020601f19861690835b8281101561123c578685013582556020948501946001909201910161121c565b50868210156112595760001960f88860031b161c19848701351681555b505060018560011b0183555050505050565b60408152600061127f6040830185876110e8565b905082602083015294935050505056fea26469706673582212203db8e644ba814b08a8524943ecb73db127965b77526c6ee2d2e7303b29d5ea1d64736f6c634300081a0033","opcodes":"PUSH1 0x80 PUSH1 0x40 MSTORE CALLVALUE DUP1 ISZERO PUSH1 0xF JUMPI PUSH1 0x0 DUP1 REVERT JUMPDEST POP PUSH2 0x12C5 DUP1 PUSH2 0x1F PUSH1 0x0 CODECOPY PUSH1 0x0 RETURN INVALID PUSH1 0x80 PUSH1 0x40 MSTORE CALLVALUE DUP1 ISZERO PUSH2 0x10 JUMPI PUSH1 0x0 DUP1 REVERT JUMPDEST POP PUSH1 0x4 CALLDATASIZE LT PUSH2 0x88 JUMPI PUSH1 0x0 CALLDATALOAD PUSH1 0xE0 SHR DUP1 PUSH4 0x9CB040DF GT PUSH2 0x5B JUMPI DUP1 PUSH4 0x9CB040DF EQ PUSH2 0xDB JUMPI DUP1 PUSH4 0xC6424078 EQ PUSH2 0xEE JUMPI DUP1 PUSH4 0xF227FA23 EQ PUSH2 0x101 JUMPI DUP1 PUSH4 0xF7260F36 EQ PUSH2 0x12A JUMPI PUSH1 0x0 DUP1 REVERT JUMPDEST DUP1 PUSH4 0x1E96E916 EQ PUSH2 0x8D JUMPI DUP1 PUSH4 0x4B528881 EQ PUSH2 0xA2 JUMPI DUP1 PUSH4 0x52DDD4A7 EQ PUSH2 0xB5 JUMPI DUP1 PUSH4 0x70247AF6 EQ PUSH2 0xC8 JUMPI JUMPDEST PUSH1 0x0 DUP1 REVERT JUMPDEST PUSH2 0xA0 PUSH2 0x9B CALLDATASIZE PUSH1 0x4 PUSH2 0xBBF JUMP JUMPDEST PUSH2 0x13D JUMP JUMPDEST STOP JUMPDEST PUSH2 0xA0 PUSH2 0xB0 CALLDATASIZE PUSH1 0x4 PUSH2 0xC8B JUMP JUMPDEST PUSH2 0x357 JUMP JUMPDEST PUSH2 0xA0 PUSH2 0xC3 CALLDATASIZE PUSH1 0x4 PUSH2 0xCB7 JUMP JUMPDEST PUSH2 0x449 JUMP JUMPDEST PUSH2 0xA0 PUSH2 0xD6 CALLDATASIZE PUSH1 0x4 PUSH2 0xD59 JUMP JUMPDEST PUSH2 0x501 JUMP JUMPDEST PUSH2 0xA0 PUSH2 0xE9 CALLDATASIZE PUSH1 0x4 PUSH2 0xDBE JUMP JUMPDEST PUSH2 0x5A4 JUMP JUMPDEST PUSH2 0xA0 PUSH2 0xFC CALLDATASIZE PUSH1 0x4 PUSH2 0xDF3 JUMP JUMPDEST PUSH2 0x67D JUMP JUMPDEST PUSH2 0x114 PUSH2 0x10F CALLDATASIZE PUSH1 0x4 PUSH2 0xE46 JUMP JUMPDEST PUSH2 0x73D JUMP JUMPDEST PUSH1 0x40 MLOAD PUSH2 0x121 SWAP2 SWAP1 PUSH2 0xEA5 JUMP JUMPDEST PUSH1 0x40 MLOAD DUP1 SWAP2 SUB SWAP1 RETURN JUMPDEST PUSH2 0xA0 PUSH2 0x138 CALLDATASIZE PUSH1 0x4 PUSH2 0xF58 JUMP JUMPDEST PUSH2 0xA48 JUMP JUMPDEST PUSH1 0x0 DUP8 DUP2 MSTORE PUSH1 0x20 DUP2 SWAP1 MSTORE PUSH1 0x40 SWAP1 KECCAK256 PUSH1 0x5 ADD SLOAD ISZERO PUSH2 0x175 JUMPI PUSH1 0x40 MLOAD PUSH4 0x234DB953 PUSH1 0xE2 SHL DUP2 MSTORE PUSH1 0x4 DUP2 ADD DUP9 SWAP1 MSTORE PUSH1 0x24 ADD JUMPDEST PUSH1 0x40 MLOAD DUP1 SWAP2 SUB SWAP1 REVERT JUMPDEST PUSH1 0x40 MLOAD DUP1 PUSH1 0xE0 ADD PUSH1 0x40 MSTORE DUP1 DUP8 DUP8 DUP1 DUP1 PUSH1 0x1F ADD PUSH1 0x20 DUP1 SWAP2 DIV MUL PUSH1 0x20 ADD PUSH1 0x40 MLOAD SWAP1 DUP2 ADD PUSH1 0x40 MSTORE DUP1 SWAP4 SWAP3 SWAP2 SWAP1 DUP2 DUP2 MSTORE PUSH1 0x20 ADD DUP4 DUP4 DUP1 DUP3 DUP5 CALLDATACOPY PUSH1 0x0 SWAP3 ADD SWAP2 SWAP1 SWAP2 MSTORE POP POP POP SWAP1 DUP3 MSTORE POP PUSH1 0x40 DUP1 MLOAD PUSH1 0x20 PUSH1 0x1F DUP9 ADD DUP2 SWAP1 DIV DUP2 MUL DUP3 ADD DUP2 ADD SWAP1 SWAP3 MSTORE DUP7 DUP2 MSTORE SWAP2 DUP2 ADD SWAP2 SWAP1 DUP8 SWAP1 DUP8 SWAP1 DUP2 SWAP1 DUP5 ADD DUP4 DUP3 DUP1 DUP3 DUP5 CALLDATACOPY PUSH1 0x0 SWAP3 ADD SWAP2 SWAP1 SWAP2 MSTORE POP POP POP SWAP1 DUP3 MSTORE POP PUSH1 0x40 DUP1 MLOAD PUSH1 0x20 PUSH1 0x1F DUP7 ADD DUP2 SWAP1 DIV DUP2 MUL DUP3 ADD DUP2 ADD SWAP1 SWAP3 MSTORE DUP5 DUP2 MSTORE SWAP2 DUP2 ADD SWAP2 SWAP1 DUP6 SWAP1 DUP6 SWAP1 DUP2 SWAP1 DUP5 ADD DUP4 DUP3 DUP1 DUP3 DUP5 CALLDATACOPY PUSH1 0x0 SWAP3 ADD DUP3 SWAP1 MSTORE POP SWAP4 DUP6 MSTORE POP POP PUSH1 0x40 DUP1 MLOAD PUSH1 0x20 DUP2 DUP2 ADD DUP4 MSTORE DUP5 DUP3 MSTORE DUP1 DUP7 ADD SWAP2 SWAP1 SWAP2 MSTORE CALLER DUP3 DUP7 ADD MSTORE PUSH1 0x1 PUSH1 0x60 DUP7 ADD MSTORE TIMESTAMP PUSH1 0x80 SWAP1 SWAP6 ADD SWAP5 SWAP1 SWAP5 MSTORE DUP12 DUP4 MSTORE SWAP3 DUP3 SWAP1 MSTORE POP KECCAK256 DUP2 MLOAD DUP2 SWAP1 PUSH2 0x26F SWAP1 DUP3 PUSH2 0x1019 JUMP JUMPDEST POP PUSH1 0x20 DUP3 ADD MLOAD PUSH1 0x1 DUP3 ADD SWAP1 PUSH2 0x284 SWAP1 DUP3 PUSH2 0x1019 JUMP JUMPDEST POP PUSH1 0x40 DUP3 ADD MLOAD PUSH1 0x2 DUP3 ADD SWAP1 PUSH2 0x299 SWAP1 DUP3 PUSH2 0x1019 JUMP JUMPDEST POP PUSH1 0x60 DUP3 ADD MLOAD PUSH1 0x3 DUP3 ADD SWAP1 PUSH2 0x2AE SWAP1 DUP3 PUSH2 0x1019 JUMP JUMPDEST POP PUSH1 0x80 DUP3 ADD MLOAD PUSH1 0x4 DUP3 ADD DUP1 SLOAD PUSH1 0xA0 DUP6 ADD MLOAD ISZERO ISZERO PUSH1 0x1 PUSH1 0xA0 SHL MUL PUSH1 0x1 PUSH1 0x1 PUSH1 0xA8 SHL SUB NOT SWAP1 SWAP2 AND PUSH1 0x1 PUSH1 0x1 PUSH1 0xA0 SHL SUB SWAP1 SWAP4 AND SWAP3 SWAP1 SWAP3 OR SWAP2 SWAP1 SWAP2 OR SWAP1 SSTORE PUSH1 0xC0 SWAP1 SWAP2 ADD MLOAD PUSH1 0x5 SWAP1 SWAP2 ADD SSTORE PUSH1 0x40 MLOAD CALLER SWAP1 PUSH2 0x306 SWAP1 DUP9 SWAP1 DUP9 SWAP1 PUSH2 0x10D8 JUMP JUMPDEST PUSH1 0x40 MLOAD DUP1 SWAP2 SUB SWAP1 KECCAK256 DUP9 PUSH32 0x8353BCBE13520B321081913AD06133FFFBADA245427B7F0C219CBBE2B5128C57 DUP8 DUP8 DUP8 DUP8 TIMESTAMP PUSH1 0x40 MLOAD PUSH2 0x346 SWAP6 SWAP5 SWAP4 SWAP3 SWAP2 SWAP1 PUSH2 0x1111 JUMP JUMPDEST PUSH1 0x40 MLOAD DUP1 SWAP2 SUB SWAP1 LOG4 POP POP POP POP POP POP POP JUMP JUMPDEST PUSH1 0x0 DUP3 DUP2 MSTORE PUSH1 0x20 DUP2 SWAP1 MSTORE PUSH1 0x40 DUP2 KECCAK256 PUSH1 0x5 DUP2 ADD SLOAD SWAP1 SWAP2 SUB PUSH2 0x38D JUMPI PUSH1 0x40 MLOAD PUSH4 0x68930537 PUSH1 0xE0 SHL DUP2 MSTORE PUSH1 0x4 DUP2 ADD DUP5 SWAP1 MSTORE PUSH1 0x24 ADD PUSH2 0x16C JUMP JUMPDEST PUSH1 0x4 DUP2 ADD SLOAD PUSH1 0x1 PUSH1 0x1 PUSH1 0xA0 SHL SUB AND CALLER EQ PUSH2 0x3B9 JUMPI PUSH1 0x40 MLOAD PUSH3 0x82B429 PUSH1 0xE8 SHL DUP2 MSTORE PUSH1 0x4 ADD PUSH1 0x40 MLOAD DUP1 SWAP2 SUB SWAP1 REVERT JUMPDEST PUSH1 0x1 PUSH1 0x1 PUSH1 0xA0 SHL SUB DUP3 AND PUSH2 0x3E0 JUMPI PUSH1 0x40 MLOAD PUSH4 0x49E27CFF PUSH1 0xE0 SHL DUP2 MSTORE PUSH1 0x4 ADD PUSH1 0x40 MLOAD DUP1 SWAP2 SUB SWAP1 REVERT JUMPDEST PUSH1 0x4 DUP2 ADD DUP1 SLOAD PUSH1 0x1 PUSH1 0x1 PUSH1 0xA0 SHL SUB DUP5 DUP2 AND PUSH1 0x1 PUSH1 0x1 PUSH1 0xA0 SHL SUB NOT DUP4 AND DUP2 OR SWAP1 SWAP4 SSTORE PUSH1 0x40 MLOAD SWAP2 AND SWAP2 SWAP1 DUP3 SWAP1 DUP7 SWAP1 PUSH32 0x33F60D30EFAD3723FF728301C94717F979275D8B2DC499F5666D8BD7277AEECA SWAP1 PUSH2 0x43B SWAP1 TIMESTAMP DUP2 MSTORE PUSH1 0x20 ADD SWAP1 JUMP JUMPDEST PUSH1 0x40 MLOAD DUP1 SWAP2 SUB SWAP1 LOG4 POP POP POP POP JUMP JUMPDEST PUSH1 0x0 DUP9 DUP2 MSTORE PUSH1 0x20 DUP2 SWAP1 MSTORE PUSH1 0x40 DUP2 KECCAK256 PUSH1 0x5 DUP2 ADD SLOAD SWAP1 SWAP2 SUB PUSH2 0x47F JUMPI PUSH1 0x40 MLOAD PUSH4 0x68930537 PUSH1 0xE0 SHL DUP2 MSTORE PUSH1 0x4 DUP2 ADD DUP11 SWAP1 MSTORE PUSH1 0x24 ADD PUSH2 0x16C JUMP JUMPDEST PUSH1 0x4 DUP2 ADD SLOAD PUSH1 0x1 PUSH1 0x1 PUSH1 0xA0 SHL SUB AND CALLER EQ PUSH2 0x4AB JUMPI PUSH1 0x40 MLOAD PUSH3 0x82B429 PUSH1 0xE8 SHL DUP2 MSTORE PUSH1 0x4 ADD PUSH1 0x40 MLOAD DUP1 SWAP2 SUB SWAP1 REVERT JUMPDEST DUP7 PUSH1 0x1 PUSH1 0x1 PUSH1 0xA0 SHL SUB AND DUP9 DUP11 PUSH32 0xC7AB26B97D998B38930B5A96EDE955D6B68BA693CF4FCA5300BE1AA2EC95C3BF DUP10 DUP10 DUP10 DUP10 DUP10 PUSH1 0x40 MLOAD PUSH2 0x4EE SWAP6 SWAP5 SWAP4 SWAP3 SWAP2 SWAP1 PUSH2 0x114B JUMP JUMPDEST PUSH1 0x40 MLOAD DUP1 SWAP2 SUB SWAP1 LOG4 POP POP POP POP POP POP POP POP POP JUMP JUMPDEST PUSH1 0x0 DUP7 DUP2 MSTORE PUSH1 0x20 DUP2 SWAP1 MSTORE PUSH1 0x40 DUP2 KECCAK256 PUSH1 0x5 DUP2 ADD SLOAD SWAP1 SWAP2 SUB PUSH2 0x537 JUMPI PUSH1 0x40 MLOAD PUSH4 0x68930537 PUSH1 0xE0 SHL DUP2 MSTORE PUSH1 0x4 DUP2 ADD DUP9 SWAP1 MSTORE PUSH1 0x24 ADD PUSH2 0x16C JUMP JUMPDEST PUSH1 0x4 DUP2 ADD SLOAD PUSH1 0x1 PUSH1 0x1 PUSH1 0xA0 SHL SUB AND CALLER EQ PUSH2 0x563 JUMPI PUSH1 0x40 MLOAD PUSH3 0x82B429 PUSH1 0xE8 SHL DUP2 MSTORE PUSH1 0x4 ADD PUSH1 0x40 MLOAD DUP1 SWAP2 SUB SWAP1 REVERT JUMPDEST CALLER PUSH1 0x1 PUSH1 0x1 PUSH1 0xA0 SHL SUB AND DUP7 DUP9 PUSH32 0xE78ACD3400D25792E2754BCD3EDA83347DD05B17BE9AA35C45DB9630FA37EDE5 DUP9 DUP9 DUP9 DUP9 PUSH1 0x40 MLOAD PUSH2 0x346 SWAP5 SWAP4 SWAP3 SWAP2 SWAP1 PUSH2 0x1184 JUMP JUMPDEST PUSH1 0x0 DUP3 DUP2 MSTORE PUSH1 0x20 DUP2 SWAP1 MSTORE PUSH1 0x40 DUP2 KECCAK256 PUSH1 0x5 DUP2 ADD SLOAD SWAP1 SWAP2 SUB PUSH2 0x5DA JUMPI PUSH1 0x40 MLOAD PUSH4 0x68930537 PUSH1 0xE0 SHL DUP2 MSTORE PUSH1 0x4 DUP2 ADD DUP5 SWAP1 MSTORE PUSH1 0x24 ADD PUSH2 0x16C JUMP JUMPDEST PUSH1 0x4 DUP2 ADD SLOAD PUSH1 0x1 PUSH1 0x1 PUSH1 0xA0 SHL SUB AND CALLER EQ PUSH2 0x606 JUMPI PUSH1 0x40 MLOAD PUSH3 0x82B429 PUSH1 0xE8 SHL DUP2 MSTORE PUSH1 0x4 ADD PUSH1 0x40 MLOAD DUP1 SWAP2 SUB SWAP1 REVERT JUMPDEST PUSH1 0x4 DUP2 ADD DUP1 SLOAD DUP4 ISZERO ISZERO PUSH1 0x1 PUSH1 0xA0 SHL DUP2 DUP2 MUL PUSH1 0xFF PUSH1 0xA0 SHL NOT DUP5 AND OR SWAP1 SWAP4 SSTORE PUSH1 0x40 DUP1 MLOAD PUSH1 0xFF SWAP5 SWAP1 SWAP4 DIV SWAP4 SWAP1 SWAP4 AND DUP1 ISZERO ISZERO DUP4 MSTORE PUSH1 0x20 DUP4 ADD SWAP2 SWAP1 SWAP2 MSTORE TIMESTAMP SWAP3 DUP3 ADD SWAP3 SWAP1 SWAP3 MSTORE CALLER SWAP1 DUP6 SWAP1 PUSH32 0x961A7883EEF0D6E34BFDED64103763471810E8BBA3A6ED61AEE5117C5C82581C SWAP1 PUSH1 0x60 ADD PUSH1 0x40 MLOAD DUP1 SWAP2 SUB SWAP1 LOG3 POP POP POP POP JUMP JUMPDEST PUSH1 0x0 DUP5 DUP2 MSTORE PUSH1 0x20 DUP2 SWAP1 MSTORE PUSH1 0x40 DUP2 KECCAK256 PUSH1 0x5 DUP2 ADD SLOAD SWAP1 SWAP2 SUB PUSH2 0x6B3 JUMPI PUSH1 0x40 MLOAD PUSH4 0x68930537 PUSH1 0xE0 SHL DUP2 MSTORE PUSH1 0x4 DUP2 ADD DUP7 SWAP1 MSTORE PUSH1 0x24 ADD PUSH2 0x16C JUMP JUMPDEST PUSH1 0x4 DUP2 ADD SLOAD PUSH1 0x1 PUSH1 0x1 PUSH1 0xA0 SHL SUB AND CALLER EQ PUSH2 0x6DF JUMPI PUSH1 0x40 MLOAD PUSH3 0x82B429 PUSH1 0xE8 SHL DUP2 MSTORE PUSH1 0x4 ADD PUSH1 0x40 MLOAD DUP1 SWAP2 SUB SWAP1 REVERT JUMPDEST PUSH1 0x3 DUP2 ADD PUSH2 0x6EE DUP4 DUP6 DUP4 PUSH2 0x11AB JUMP JUMPDEST POP CALLER PUSH1 0x1 PUSH1 0x1 PUSH1 0xA0 SHL SUB AND DUP5 DUP7 PUSH32 0xAD9162C0AF636AB08CDAF4D7F7B4CFB3776886F11255F50752384598A48FF2DC DUP7 DUP7 TIMESTAMP PUSH1 0x40 MLOAD PUSH2 0x72E SWAP4 SWAP3 SWAP2 SWAP1 PUSH2 0x126B JUMP JUMPDEST PUSH1 0x40 MLOAD DUP1 SWAP2 SUB SWAP1 LOG4 POP POP POP POP POP JUMP JUMPDEST PUSH2 0x788 PUSH1 0x40 MLOAD DUP1 PUSH1 0xE0 ADD PUSH1 0x40 MSTORE DUP1 PUSH1 0x60 DUP2 MSTORE PUSH1 0x20 ADD PUSH1 0x60 DUP2 MSTORE PUSH1 0x20 ADD PUSH1 0x60 DUP2 MSTORE PUSH1 0x20 ADD PUSH1 0x60 DUP2 MSTORE PUSH1 0x20 ADD PUSH1 0x0 PUSH1 0x1 PUSH1 0x1 PUSH1 0xA0 SHL SUB AND DUP2 MSTORE PUSH1 0x20 ADD PUSH1 0x0 ISZERO ISZERO DUP2 MSTORE PUSH1 0x20 ADD PUSH1 0x0 DUP2 MSTORE POP SWAP1 JUMP JUMPDEST PUSH1 0x0 DUP3 DUP2 MSTORE PUSH1 0x20 DUP2 SWAP1 MSTORE PUSH1 0x40 DUP1 DUP3 KECCAK256 DUP2 MLOAD PUSH1 0xE0 DUP2 ADD SWAP1 SWAP3 MSTORE DUP1 SLOAD DUP3 SWAP1 DUP3 SWAP1 PUSH2 0x7AF SWAP1 PUSH2 0xF90 JUMP JUMPDEST DUP1 PUSH1 0x1F ADD PUSH1 0x20 DUP1 SWAP2 DIV MUL PUSH1 0x20 ADD PUSH1 0x40 MLOAD SWAP1 DUP2 ADD PUSH1 0x40 MSTORE DUP1 SWAP3 SWAP2 SWAP1 DUP2 DUP2 MSTORE PUSH1 0x20 ADD DUP3 DUP1 SLOAD PUSH2 0x7DB SWAP1 PUSH2 0xF90 JUMP JUMPDEST DUP1 ISZERO PUSH2 0x828 JUMPI DUP1 PUSH1 0x1F LT PUSH2 0x7FD JUMPI PUSH2 0x100 DUP1 DUP4 SLOAD DIV MUL DUP4 MSTORE SWAP2 PUSH1 0x20 ADD SWAP2 PUSH2 0x828 JUMP JUMPDEST DUP3 ADD SWAP2 SWAP1 PUSH1 0x0 MSTORE PUSH1 0x20 PUSH1 0x0 KECCAK256 SWAP1 JUMPDEST DUP2 SLOAD DUP2 MSTORE SWAP1 PUSH1 0x1 ADD SWAP1 PUSH1 0x20 ADD DUP1 DUP4 GT PUSH2 0x80B JUMPI DUP3 SWAP1 SUB PUSH1 0x1F AND DUP3 ADD SWAP2 JUMPDEST POP POP POP POP POP DUP2 MSTORE PUSH1 0x20 ADD PUSH1 0x1 DUP3 ADD DUP1 SLOAD PUSH2 0x841 SWAP1 PUSH2 0xF90 JUMP JUMPDEST DUP1 PUSH1 0x1F ADD PUSH1 0x20 DUP1 SWAP2 DIV MUL PUSH1 0x20 ADD PUSH1 0x40 MLOAD SWAP1 DUP2 ADD PUSH1 0x40 MSTORE DUP1 SWAP3 SWAP2 SWAP1 DUP2 DUP2 MSTORE PUSH1 0x20 ADD DUP3 DUP1 SLOAD PUSH2 0x86D SWAP1 PUSH2 0xF90 JUMP JUMPDEST DUP1 ISZERO PUSH2 0x8BA JUMPI DUP1 PUSH1 0x1F LT PUSH2 0x88F JUMPI PUSH2 0x100 DUP1 DUP4 SLOAD DIV MUL DUP4 MSTORE SWAP2 PUSH1 0x20 ADD SWAP2 PUSH2 0x8BA JUMP JUMPDEST DUP3 ADD SWAP2 SWAP1 PUSH1 0x0 MSTORE PUSH1 0x20 PUSH1 0x0 KECCAK256 SWAP1 JUMPDEST DUP2 SLOAD DUP2 MSTORE SWAP1 PUSH1 0x1 ADD SWAP1 PUSH1 0x20 ADD DUP1 DUP4 GT PUSH2 0x89D JUMPI DUP3 SWAP1 SUB PUSH1 0x1F AND DUP3 ADD SWAP2 JUMPDEST POP POP POP POP POP DUP2 MSTORE PUSH1 0x20 ADD PUSH1 0x2 DUP3 ADD DUP1 SLOAD PUSH2 0x8D3 SWAP1 PUSH2 0xF90 JUMP JUMPDEST DUP1 PUSH1 0x1F ADD PUSH1 0x20 DUP1 SWAP2 DIV MUL PUSH1 0x20 ADD PUSH1 0x40 MLOAD SWAP1 DUP2 ADD PUSH1 0x40 MSTORE DUP1 SWAP3 SWAP2 SWAP1 DUP2 DUP2 MSTORE PUSH1 0x20 ADD DUP3 DUP1 SLOAD PUSH2 0x8FF SWAP1 PUSH2 0xF90 JUMP JUMPDEST DUP1 ISZERO PUSH2 0x94C JUMPI DUP1 PUSH1 0x1F LT PUSH2 0x921 JUMPI PUSH2 0x100 DUP1 DUP4 SLOAD DIV MUL DUP4 MSTORE SWAP2 PUSH1 0x20 ADD SWAP2 PUSH2 0x94C JUMP JUMPDEST DUP3 ADD SWAP2 SWAP1 PUSH1 0x0 MSTORE PUSH1 0x20 PUSH1 0x0 KECCAK256 SWAP1 JUMPDEST DUP2 SLOAD DUP2 MSTORE SWAP1 PUSH1 0x1 ADD SWAP1 PUSH1 0x20 ADD DUP1 DUP4 GT PUSH2 0x92F JUMPI DUP3 SWAP1 SUB PUSH1 0x1F AND DUP3 ADD SWAP2 JUMPDEST POP POP POP POP POP DUP2 MSTORE PUSH1 0x20 ADD PUSH1 0x3 DUP3 ADD DUP1 SLOAD PUSH2 0x965 SWAP1 PUSH2 0xF90 JUMP JUMPDEST DUP1 PUSH1 0x1F ADD PUSH1 0x20 DUP1 SWAP2 DIV MUL PUSH1 0x20 ADD PUSH1 0x40 MLOAD SWAP1 DUP2 ADD PUSH1 0x40 MSTORE DUP1 SWAP3 SWAP2 SWAP1 DUP2 DUP2 MSTORE PUSH1 0x20 ADD DUP3 DUP1 SLOAD PUSH2 0x991 SWAP1 PUSH2 0xF90 JUMP JUMPDEST DUP1 ISZERO PUSH2 0x9DE JUMPI DUP1 PUSH1 0x1F LT PUSH2 0x9B3 JUMPI PUSH2 0x100 DUP1 DUP4 SLOAD DIV MUL DUP4 MSTORE SWAP2 PUSH1 0x20 ADD SWAP2 PUSH2 0x9DE JUMP JUMPDEST DUP3 ADD SWAP2 SWAP1 PUSH1 0x0 MSTORE PUSH1 0x20 PUSH1 0x0 KECCAK256 SWAP1 JUMPDEST DUP2 SLOAD DUP2 MSTORE SWAP1 PUSH1 0x1 ADD SWAP1 PUSH1 0x20 ADD DUP1 DUP4 GT PUSH2 0x9C1 JUMPI DUP3 SWAP1 SUB PUSH1 0x1F AND DUP3 ADD SWAP2 JUMPDEST POP POP POP SWAP2 DUP4 MSTORE POP POP PUSH1 0x4 DUP3 ADD SLOAD PUSH1 0x1 PUSH1 0x1 PUSH1 0xA0 SHL SUB DUP2 AND PUSH1 0x20 DUP4 ADD MSTORE PUSH1 0x1 PUSH1 0xA0 SHL SWAP1 DIV PUSH1 0xFF AND ISZERO ISZERO PUSH1 0x40 DUP3 ADD MSTORE PUSH1 0x5 SWAP1 SWAP2 ADD SLOAD PUSH1 0x60 SWAP1 SWAP2 ADD MSTORE PUSH1 0xC0 DUP2 ADD MLOAD SWAP1 SWAP2 POP PUSH1 0x0 SUB PUSH2 0xA42 JUMPI PUSH1 0x40 MLOAD PUSH4 0x68930537 PUSH1 0xE0 SHL DUP2 MSTORE PUSH1 0x4 DUP2 ADD DUP5 SWAP1 MSTORE PUSH1 0x24 ADD PUSH2 0x16C JUMP JUMPDEST SWAP3 SWAP2 POP POP JUMP JUMPDEST PUSH1 0x0 DUP3 DUP2 MSTORE PUSH1 0x20 DUP2 SWAP1 MSTORE PUSH1 0x40 DUP2 KECCAK256 PUSH1 0x5 DUP2 ADD SLOAD SWAP1 SWAP2 SUB PUSH2 0xA7E JUMPI PUSH1 0x40 MLOAD PUSH4 0x68930537 PUSH1 0xE0 SHL DUP2 MSTORE PUSH1 0x4 DUP2 ADD DUP5 SWAP1 MSTORE PUSH1 0x24 ADD PUSH2 0x16C JUMP JUMPDEST PUSH1 0x4 DUP2 ADD SLOAD PUSH1 0x1 PUSH1 0x1 PUSH1 0xA0 SHL SUB AND CALLER EQ PUSH2 0xAAA JUMPI PUSH1 0x40 MLOAD PUSH3 0x82B429 PUSH1 0xE8 SHL DUP2 MSTORE PUSH1 0x4 ADD PUSH1 0x40 MLOAD DUP1 SWAP2 SUB SWAP1 REVERT JUMPDEST PUSH1 0x4 DUP2 ADD SLOAD PUSH1 0x1 PUSH1 0xA0 SHL SWAP1 DIV PUSH1 0xFF AND PUSH2 0xAD9 JUMPI PUSH1 0x40 MLOAD PUSH4 0x45F27BFB PUSH1 0xE1 SHL DUP2 MSTORE PUSH1 0x4 DUP2 ADD DUP5 SWAP1 MSTORE PUSH1 0x24 ADD PUSH2 0x16C JUMP JUMPDEST PUSH1 0x4 DUP2 ADD DUP1 SLOAD PUSH1 0xFF PUSH1 0xA0 SHL NOT AND SWAP1 SSTORE PUSH1 0x40 DUP1 MLOAD PUSH1 0x1 DUP2 MSTORE PUSH1 0x0 PUSH1 0x20 DUP3 ADD MSTORE TIMESTAMP DUP2 DUP4 ADD MSTORE SWAP1 MLOAD CALLER SWAP2 DUP6 SWAP2 PUSH32 0x961A7883EEF0D6E34BFDED64103763471810E8BBA3A6ED61AEE5117C5C82581C SWAP2 DUP2 SWAP1 SUB PUSH1 0x60 ADD SWAP1 LOG3 CALLER PUSH1 0x1 PUSH1 0x1 PUSH1 0xA0 SHL SUB AND DUP3 DUP5 PUSH32 0x92855A5D6C73853EE1F6CD454478D3C3C7EB96F42A881E9590A8D357569A3E54 TIMESTAMP PUSH1 0x40 MLOAD PUSH2 0xB69 SWAP2 DUP2 MSTORE PUSH1 0x20 ADD SWAP1 JUMP JUMPDEST PUSH1 0x40 MLOAD DUP1 SWAP2 SUB SWAP1 LOG4 POP POP POP JUMP JUMPDEST PUSH1 0x0 DUP1 DUP4 PUSH1 0x1F DUP5 ADD SLT PUSH2 0xB88 JUMPI PUSH1 0x0 DUP1 REVERT JUMPDEST POP DUP2 CALLDATALOAD PUSH8 0xFFFFFFFFFFFFFFFF DUP2 GT ISZERO PUSH2 0xBA0 JUMPI PUSH1 0x0 DUP1 REVERT JUMPDEST PUSH1 0x20 DUP4 ADD SWAP2 POP DUP4 PUSH1 0x20 DUP3 DUP6 ADD ADD GT ISZERO PUSH2 0xBB8 JUMPI PUSH1 0x0 DUP1 REVERT JUMPDEST SWAP3 POP SWAP3 SWAP1 POP JUMP JUMPDEST PUSH1 0x0 DUP1 PUSH1 0x0 DUP1 PUSH1 0x0 DUP1 PUSH1 0x0 PUSH1 0x80 DUP9 DUP11 SUB SLT ISZERO PUSH2 0xBDA JUMPI PUSH1 0x0 DUP1 REVERT JUMPDEST DUP8 CALLDATALOAD SWAP7 POP PUSH1 0x20 DUP9 ADD CALLDATALOAD PUSH8 0xFFFFFFFFFFFFFFFF DUP2 GT ISZERO PUSH2 0xBF8 JUMPI PUSH1 0x0 DUP1 REVERT JUMPDEST PUSH2 0xC04 DUP11 DUP3 DUP12 ADD PUSH2 0xB76 JUMP JUMPDEST SWAP1 SWAP8 POP SWAP6 POP POP PUSH1 0x40 DUP9 ADD CALLDATALOAD PUSH8 0xFFFFFFFFFFFFFFFF DUP2 GT ISZERO PUSH2 0xC24 JUMPI PUSH1 0x0 DUP1 REVERT JUMPDEST PUSH2 0xC30 DUP11 DUP3 DUP12 ADD PUSH2 0xB76 JUMP JUMPDEST SWAP1 SWAP6 POP SWAP4 POP POP PUSH1 0x60 DUP9 ADD CALLDATALOAD PUSH8 0xFFFFFFFFFFFFFFFF DUP2 GT ISZERO PUSH2 0xC50 JUMPI PUSH1 0x0 DUP1 REVERT JUMPDEST PUSH2 0xC5C DUP11 DUP3 DUP12 ADD PUSH2 0xB76 JUMP JUMPDEST SWAP9 SWAP12 SWAP8 SWAP11 POP SWAP6 SWAP9 POP SWAP4 SWAP7 SWAP3 SWAP6 SWAP3 SWAP4 POP POP POP JUMP JUMPDEST DUP1 CALLDATALOAD PUSH1 0x1 PUSH1 0x1 PUSH1 0xA0 SHL SUB DUP2 AND DUP2 EQ PUSH2 0xC86 JUMPI PUSH1 0x0 DUP1 REVERT JUMPDEST SWAP2 SWAP1 POP JUMP JUMPDEST PUSH1 0x0 DUP1 PUSH1 0x40 DUP4 DUP6 SUB SLT ISZERO PUSH2 0xC9E JUMPI PUSH1 0x0 DUP1 REVERT JUMPDEST DUP3 CALLDATALOAD SWAP2 POP PUSH2 0xCAE PUSH1 0x20 DUP5 ADD PUSH2 0xC6F JUMP JUMPDEST SWAP1 POP SWAP3 POP SWAP3 SWAP1 POP JUMP JUMPDEST PUSH1 0x0 DUP1 PUSH1 0x0 DUP1 PUSH1 0x0 DUP1 PUSH1 0x0 DUP1 PUSH1 0xC0 DUP10 DUP12 SUB SLT ISZERO PUSH2 0xCD3 JUMPI PUSH1 0x0 DUP1 REVERT JUMPDEST DUP9 CALLDATALOAD SWAP8 POP PUSH1 0x20 DUP10 ADD CALLDATALOAD SWAP7 POP PUSH2 0xCEA PUSH1 0x40 DUP11 ADD PUSH2 0xC6F JUMP JUMPDEST SWAP6 POP PUSH1 0x60 DUP10 ADD CALLDATALOAD PUSH8 0xFFFFFFFFFFFFFFFF DUP2 GT ISZERO PUSH2 0xD06 JUMPI PUSH1 0x0 DUP1 REVERT JUMPDEST PUSH2 0xD12 DUP12 DUP3 DUP13 ADD PUSH2 0xB76 JUMP JUMPDEST SWAP1 SWAP7 POP SWAP5 POP POP PUSH1 0x80 DUP10 ADD CALLDATALOAD SWAP3 POP PUSH1 0xA0 DUP10 ADD CALLDATALOAD PUSH8 0xFFFFFFFFFFFFFFFF DUP2 GT ISZERO PUSH2 0xD39 JUMPI PUSH1 0x0 DUP1 REVERT JUMPDEST PUSH2 0xD45 DUP12 DUP3 DUP13 ADD PUSH2 0xB76 JUMP JUMPDEST SWAP10 SWAP13 SWAP9 SWAP12 POP SWAP7 SWAP10 POP SWAP5 SWAP8 SWAP4 SWAP7 SWAP3 SWAP6 SWAP5 POP POP POP JUMP JUMPDEST PUSH1 0x0 DUP1 PUSH1 0x0 DUP1 PUSH1 0x0 DUP1 PUSH1 0xA0 DUP8 DUP10 SUB SLT ISZERO PUSH2 0xD72 JUMPI PUSH1 0x0 DUP1 REVERT JUMPDEST DUP7 CALLDATALOAD SWAP6 POP PUSH1 0x20 DUP8 ADD CALLDATALOAD SWAP5 POP PUSH1 0x40 DUP8 ADD CALLDATALOAD PUSH8 0xFFFFFFFFFFFFFFFF DUP2 GT ISZERO PUSH2 0xD97 JUMPI PUSH1 0x0 DUP1 REVERT JUMPDEST PUSH2 0xDA3 DUP10 DUP3 DUP11 ADD PUSH2 0xB76 JUMP JUMPDEST SWAP8 SWAP11 SWAP7 SWAP10 POP SWAP8 PUSH1 0x60 DUP2 ADD CALLDATALOAD SWAP7 PUSH1 0x80 SWAP1 SWAP2 ADD CALLDATALOAD SWAP6 POP SWAP4 POP POP POP POP JUMP JUMPDEST PUSH1 0x0 DUP1 PUSH1 0x40 DUP4 DUP6 SUB SLT ISZERO PUSH2 0xDD1 JUMPI PUSH1 0x0 DUP1 REVERT JUMPDEST DUP3 CALLDATALOAD SWAP2 POP PUSH1 0x20 DUP4 ADD CALLDATALOAD DUP1 ISZERO ISZERO DUP2 EQ PUSH2 0xDE8 JUMPI PUSH1 0x0 DUP1 REVERT JUMPDEST DUP1 SWAP2 POP POP SWAP3 POP SWAP3 SWAP1 POP JUMP JUMPDEST PUSH1 0x0 DUP1 PUSH1 0x0 DUP1 PUSH1 0x60 DUP6 DUP8 SUB SLT ISZERO PUSH2 0xE09 JUMPI PUSH1 0x0 DUP1 REVERT JUMPDEST DUP5 CALLDATALOAD SWAP4 POP PUSH1 0x20 DUP6 ADD CALLDATALOAD SWAP3 POP PUSH1 0x40 DUP6 ADD CALLDATALOAD PUSH8 0xFFFFFFFFFFFFFFFF DUP2 GT ISZERO PUSH2 0xE2E JUMPI PUSH1 0x0 DUP1 REVERT JUMPDEST PUSH2 0xE3A DUP8 DUP3 DUP9 ADD PUSH2 0xB76 JUMP JUMPDEST SWAP6 SWAP9 SWAP5 SWAP8 POP SWAP6 POP POP POP POP JUMP JUMPDEST PUSH1 0x0 PUSH1 0x20 DUP3 DUP5 SUB SLT ISZERO PUSH2 0xE58 JUMPI PUSH1 0x0 DUP1 REVERT JUMPDEST POP CALLDATALOAD SWAP2 SWAP1 POP JUMP JUMPDEST PUSH1 0x0 DUP2 MLOAD DUP1 DUP5 MSTORE PUSH1 0x0 JUMPDEST DUP2 DUP2 LT ISZERO PUSH2 0xE85 JUMPI PUSH1 0x20 DUP2 DUP6 ADD DUP2 ADD MLOAD DUP7 DUP4 ADD DUP3 ADD MSTORE ADD PUSH2 0xE69 JUMP JUMPDEST POP PUSH1 0x0 PUSH1 0x20 DUP3 DUP7 ADD ADD MSTORE PUSH1 0x20 PUSH1 0x1F NOT PUSH1 0x1F DUP4 ADD AND DUP6 ADD ADD SWAP2 POP POP SWAP3 SWAP2 POP POP JUMP JUMPDEST PUSH1 0x20 DUP2 MSTORE PUSH1 0x0 DUP3 MLOAD PUSH1 0xE0 PUSH1 0x20 DUP5 ADD MSTORE PUSH2 0xEC2 PUSH2 0x100 DUP5 ADD DUP3 PUSH2 0xE5F JUMP JUMPDEST SWAP1 POP PUSH1 0x20 DUP5 ADD MLOAD PUSH1 0x1F NOT DUP5 DUP4 SUB ADD PUSH1 0x40 DUP6 ADD MSTORE PUSH2 0xEDF DUP3 DUP3 PUSH2 0xE5F JUMP JUMPDEST SWAP2 POP POP PUSH1 0x40 DUP5 ADD MLOAD PUSH1 0x1F NOT DUP5 DUP4 SUB ADD PUSH1 0x60 DUP6 ADD MSTORE PUSH2 0xEFD DUP3 DUP3 PUSH2 0xE5F JUMP JUMPDEST SWAP2 POP POP PUSH1 0x60 DUP5 ADD MLOAD PUSH1 0x1F NOT DUP5 DUP4 SUB ADD PUSH1 0x80 DUP6 ADD MSTORE PUSH2 0xF1B DUP3 DUP3 PUSH2 0xE5F JUMP JUMPDEST SWAP2 POP POP PUSH1 0x1 DUP1 PUSH1 0xA0 SHL SUB PUSH1 0x80 DUP6 ADD MLOAD AND PUSH1 0xA0 DUP5 ADD MSTORE PUSH1 0xA0 DUP5 ADD MLOAD PUSH2 0xF43 PUSH1 0xC0 DUP6 ADD DUP3 ISZERO ISZERO SWAP1 MSTORE JUMP JUMPDEST POP PUSH1 0xC0 DUP5 ADD MLOAD PUSH1 0xE0 DUP5 ADD MSTORE DUP1 SWAP2 POP POP SWAP3 SWAP2 POP POP JUMP JUMPDEST PUSH1 0x0 DUP1 PUSH1 0x40 DUP4 DUP6 SUB SLT ISZERO PUSH2 0xF6B JUMPI PUSH1 0x0 DUP1 REVERT JUMPDEST POP POP DUP1 CALLDATALOAD SWAP3 PUSH1 0x20 SWAP1 SWAP2 ADD CALLDATALOAD SWAP2 POP JUMP JUMPDEST PUSH4 0x4E487B71 PUSH1 0xE0 SHL PUSH1 0x0 MSTORE PUSH1 0x41 PUSH1 0x4 MSTORE PUSH1 0x24 PUSH1 0x0 REVERT JUMPDEST PUSH1 0x1 DUP2 DUP2 SHR SWAP1 DUP3 AND DUP1 PUSH2 0xFA4 JUMPI PUSH1 0x7F DUP3 AND SWAP2 POP JUMPDEST PUSH1 0x20 DUP3 LT DUP2 SUB PUSH2 0xFC4 JUMPI PUSH4 0x4E487B71 PUSH1 0xE0 SHL PUSH1 0x0 MSTORE PUSH1 0x22 PUSH1 0x4 MSTORE PUSH1 0x24 PUSH1 0x0 REVERT JUMPDEST POP SWAP2 SWAP1 POP JUMP JUMPDEST PUSH1 0x1F DUP3 GT ISZERO PUSH2 0x1014 JUMPI DUP1 PUSH1 0x0 MSTORE PUSH1 0x20 PUSH1 0x0 KECCAK256 PUSH1 0x1F DUP5 ADD PUSH1 0x5 SHR DUP2 ADD PUSH1 0x20 DUP6 LT ISZERO PUSH2 0xFF1 JUMPI POP DUP1 JUMPDEST PUSH1 0x1F DUP5 ADD PUSH1 0x5 SHR DUP3 ADD SWAP2 POP JUMPDEST DUP2 DUP2 LT ISZERO PUSH2 0x1011 JUMPI PUSH1 0x0 DUP2 SSTORE PUSH1 0x1 ADD PUSH2 0xFFD JUMP JUMPDEST POP POP JUMPDEST POP POP POP JUMP JUMPDEST DUP2 MLOAD PUSH8 0xFFFFFFFFFFFFFFFF DUP2 GT ISZERO PUSH2 0x1033 JUMPI PUSH2 0x1033 PUSH2 0xF7A JUMP JUMPDEST PUSH2 0x1047 DUP2 PUSH2 0x1041 DUP5 SLOAD PUSH2 0xF90 JUMP JUMPDEST DUP5 PUSH2 0xFCA JUMP JUMPDEST PUSH1 0x20 PUSH1 0x1F DUP3 GT PUSH1 0x1 DUP2 EQ PUSH2 0x107B JUMPI PUSH1 0x0 DUP4 ISZERO PUSH2 0x1063 JUMPI POP DUP5 DUP3 ADD MLOAD JUMPDEST PUSH1 0x0 NOT PUSH1 0x3 DUP6 SWAP1 SHL SHR NOT AND PUSH1 0x1 DUP5 SWAP1 SHL OR DUP5 SSTORE PUSH2 0x1011 JUMP JUMPDEST PUSH1 0x0 DUP5 DUP2 MSTORE PUSH1 0x20 DUP2 KECCAK256 PUSH1 0x1F NOT DUP6 AND SWAP2 JUMPDEST DUP3 DUP2 LT ISZERO PUSH2 0x10AB JUMPI DUP8 DUP6 ADD MLOAD DUP3 SSTORE PUSH1 0x20 SWAP5 DUP6 ADD SWAP5 PUSH1 0x1 SWAP1 SWAP3 ADD SWAP2 ADD PUSH2 0x108B JUMP JUMPDEST POP DUP5 DUP3 LT ISZERO PUSH2 0x10C9 JUMPI DUP7 DUP5 ADD MLOAD PUSH1 0x0 NOT PUSH1 0x3 DUP8 SWAP1 SHL PUSH1 0xF8 AND SHR NOT AND DUP2 SSTORE JUMPDEST POP POP POP POP PUSH1 0x1 SWAP1 DUP2 SHL ADD SWAP1 SSTORE POP JUMP JUMPDEST DUP2 DUP4 DUP3 CALLDATACOPY PUSH1 0x0 SWAP2 ADD SWAP1 DUP2 MSTORE SWAP2 SWAP1 POP JUMP JUMPDEST DUP2 DUP4 MSTORE DUP2 DUP2 PUSH1 0x20 DUP6 ADD CALLDATACOPY POP PUSH1 0x0 DUP3 DUP3 ADD PUSH1 0x20 SWAP1 DUP2 ADD SWAP2 SWAP1 SWAP2 MSTORE PUSH1 0x1F SWAP1 SWAP2 ADD PUSH1 0x1F NOT AND SWAP1 SWAP2 ADD ADD SWAP1 JUMP JUMPDEST PUSH1 0x60 DUP2 MSTORE PUSH1 0x0 PUSH2 0x1125 PUSH1 0x60 DUP4 ADD DUP8 DUP10 PUSH2 0x10E8 JUMP JUMPDEST DUP3 DUP2 SUB PUSH1 0x20 DUP5 ADD MSTORE PUSH2 0x1138 DUP2 DUP7 DUP9 PUSH2 0x10E8 JUMP JUMPDEST SWAP2 POP POP DUP3 PUSH1 0x40 DUP4 ADD MSTORE SWAP7 SWAP6 POP POP POP POP POP POP JUMP JUMPDEST PUSH1 0x60 DUP2 MSTORE PUSH1 0x0 PUSH2 0x115F PUSH1 0x60 DUP4 ADD DUP8 DUP10 PUSH2 0x10E8 JUMP JUMPDEST DUP6 PUSH1 0x20 DUP5 ADD MSTORE DUP3 DUP2 SUB PUSH1 0x40 DUP5 ADD MSTORE PUSH2 0x1178 DUP2 DUP6 DUP8 PUSH2 0x10E8 JUMP JUMPDEST SWAP9 SWAP8 POP POP POP POP POP POP POP POP JUMP JUMPDEST PUSH1 0x60 DUP2 MSTORE PUSH1 0x0 PUSH2 0x1198 PUSH1 0x60 DUP4 ADD DUP7 DUP9 PUSH2 0x10E8 JUMP JUMPDEST PUSH1 0x20 DUP4 ADD SWAP5 SWAP1 SWAP5 MSTORE POP PUSH1 0x40 ADD MSTORE SWAP3 SWAP2 POP POP JUMP JUMPDEST PUSH8 0xFFFFFFFFFFFFFFFF DUP4 GT ISZERO PUSH2 0x11C3 JUMPI PUSH2 0x11C3 PUSH2 0xF7A JUMP JUMPDEST PUSH2 0x11D7 DUP4 PUSH2 0x11D1 DUP4 SLOAD PUSH2 0xF90 JUMP JUMPDEST DUP4 PUSH2 0xFCA JUMP JUMPDEST PUSH1 0x0 PUSH1 0x1F DUP5 GT PUSH1 0x1 DUP2 EQ PUSH2 0x120B JUMPI PUSH1 0x0 DUP6 ISZERO PUSH2 0x11F3 JUMPI POP DUP4 DUP3 ADD CALLDATALOAD JUMPDEST PUSH1 0x0 NOT PUSH1 0x3 DUP8 SWAP1 SHL SHR NOT AND PUSH1 0x1 DUP7 SWAP1 SHL OR DUP4 SSTORE PUSH2 0x1011 JUMP JUMPDEST PUSH1 0x0 DUP4 DUP2 MSTORE PUSH1 0x20 SWAP1 KECCAK256 PUSH1 0x1F NOT DUP7 AND SWAP1 DUP4 JUMPDEST DUP3 DUP2 LT ISZERO PUSH2 0x123C JUMPI DUP7 DUP6 ADD CALLDATALOAD DUP3 SSTORE PUSH1 0x20 SWAP5 DUP6 ADD SWAP5 PUSH1 0x1 SWAP1 SWAP3 ADD SWAP2 ADD PUSH2 0x121C JUMP JUMPDEST POP DUP7 DUP3 LT ISZERO PUSH2 0x1259 JUMPI PUSH1 0x0 NOT PUSH1 0xF8 DUP9 PUSH1 0x3 SHL AND SHR NOT DUP5 DUP8 ADD CALLDATALOAD AND DUP2 SSTORE JUMPDEST POP POP PUSH1 0x1 DUP6 PUSH1 0x1 SHL ADD DUP4 SSTORE POP POP POP POP POP JUMP JUMPDEST PUSH1 0x40 DUP2 MSTORE PUSH1 0x0 PUSH2 0x127F PUSH1 0x40 DUP4 ADD DUP6 DUP8 PUSH2 0x10E8 JUMP JUMPDEST SWAP1 POP DUP3 PUSH1 0x20 DUP4 ADD MSTORE SWAP5 SWAP4 POP POP POP POP JUMP INVALID LOG2 PUSH5 0x6970667358 0x22 SLT KECCAK256 RETURNDATASIZE 0xB8 0xE6 PREVRANDAO 0xBA DUP2 0x4B ADDMOD 0xA8 MSTORE BLOBHASH NUMBER 0xEC 0xB7 RETURNDATASIZE 0xB1 0x27 SWAP7 JUMPDEST PUSH24 0x526C6EE2D2E7303B29D5EA1D64736F6C634300081A003300 "},"methodIdentifiers":{"attachPassportCertification(bytes32,bytes32,string,uint256,uint256)":"70247af6","createPassport(bytes32,string,string,string)":"1e96e916","deactivatePassport(bytes32,bytes32)":"f7260f36","getPassport(bytes32)":"f227fa23","recordPassportEvent(bytes32,bytes32,address,string,uint256,string)":"52ddd4a7","setPassportStatus(bytes32,bool)":"9cb040df","transferPassportOwnership(bytes32,address)":"4b528881","updatePassportMetadata(bytes32,bytes32,string)":"c6424078"}}}}}