{"contracts/Marketplace.sol":{"Marketplace":{"abi":[{"inputs":[],"name":"IncorrectPayment","type":"error"},{"inputs":[],"name":"InvalidQuantity","type":"error"},{"inputs":[],"name":"InvalidStatusTransition","type":"error"},{"inputs":[{"internalType":"bytes32","name":"listingId","type":"bytes32"}],"name":"ListingAlreadyExists","type":"error"},{"inputs":[{"internalType":"bytes32","name":"listingId","type":"bytes32"}],"name":"ListingNotFound","type":"error"},{"inputs":[{"internalType":"bytes32","name":"listingId","type":"bytes32"}],"name":"ListingNotOpen","type":"error"},{"inputs":[{"internalType":"bytes32","name":"offerId","type":"bytes32"}],"name":"OfferAlreadyExists","type":"error"},{"inputs":[{"internalType":"bytes32","name":"offerId","type":"bytes32"}],"name":"OfferNotFound","type":"error"},{"inputs":[{"internalType":"bytes32","name":"offerId","type":"bytes32"}],"name":"OfferNotPending","type":"error"},{"inputs":[],"name":"Unauthorized","type":"error"},{"anonymous":false,"inputs":[{"indexed":true,"internalType":"bytes32","name":"listingId","type":"bytes32"},{"indexed":true,"internalType":"address","name":"seller","type":"address"},{"indexed":true,"internalType":"bytes32","name":"reasonCode","type":"bytes32"},{"indexed":false,"internalType":"uint256","name":"cancelledAt","type":"uint256"}],"name":"ListingCancelled","type":"event"},{"anonymous":false,"inputs":[{"indexed":true,"internalType":"bytes32","name":"listingId","type":"bytes32"},{"indexed":true,"internalType":"address","name":"seller","type":"address"},{"indexed":true,"internalType":"bytes32","name":"passportId","type":"bytes32"},{"indexed":false,"internalType":"uint256","name":"unitPrice","type":"uint256"},{"indexed":false,"internalType":"uint256","name":"quantity","type":"uint256"},{"indexed":false,"internalType":"uint256","name":"createdAt","type":"uint256"}],"name":"ListingCreated","type":"event"},{"anonymous":false,"inputs":[{"indexed":true,"internalType":"bytes32","name":"listingId","type":"bytes32"},{"indexed":false,"internalType":"uint256","name":"previousQuantity","type":"uint256"},{"indexed":false,"internalType":"uint256","name":"newQuantity","type":"uint256"},{"indexed":true,"internalType":"bytes32","name":"reasonCode","type":"bytes32"},{"indexed":true,"internalType":"address","name":"updatedBy","type":"address"},{"indexed":false,"internalType":"uint256","name":"updatedAt","type":"uint256"}],"name":"ListingQuantityAdjusted","type":"event"},{"anonymous":false,"inputs":[{"indexed":true,"internalType":"bytes32","name":"listingId","type":"bytes32"},{"indexed":false,"internalType":"enum Marketplace.ListingStatus","name":"previousStatus","type":"uint8"},{"indexed":false,"internalType":"enum Marketplace.ListingStatus","name":"newStatus","type":"uint8"},{"indexed":true,"internalType":"address","name":"changedBy","type":"address"},{"indexed":false,"internalType":"uint256","name":"changedAt","type":"uint256"}],"name":"ListingStatusChanged","type":"event"},{"anonymous":false,"inputs":[{"indexed":true,"internalType":"bytes32","name":"listingId","type":"bytes32"},{"indexed":true,"internalType":"address","name":"seller","type":"address"},{"indexed":true,"internalType":"bytes32","name":"fieldMask","type":"bytes32"},{"indexed":false,"internalType":"uint256","name":"unitPrice","type":"uint256"},{"indexed":false,"internalType":"uint256","name":"totalQuantity","type":"uint256"},{"indexed":false,"internalType":"uint256","name":"availableQuantity","type":"uint256"},{"indexed":false,"internalType":"uint256","name":"updatedAt","type":"uint256"}],"name":"ListingUpdated","type":"event"},{"anonymous":false,"inputs":[{"indexed":true,"internalType":"bytes32","name":"offerId","type":"bytes32"},{"indexed":true,"internalType":"bytes32","name":"listingId","type":"bytes32"},{"indexed":true,"internalType":"address","name":"seller","type":"address"},{"indexed":false,"internalType":"address","name":"buyer","type":"address"},{"indexed":false,"internalType":"uint256","name":"totalPrice","type":"uint256"},{"indexed":false,"internalType":"uint256","name":"acceptedAt","type":"uint256"}],"name":"OfferAccepted","type":"event"},{"anonymous":false,"inputs":[{"indexed":true,"internalType":"bytes32","name":"offerId","type":"bytes32"},{"indexed":true,"internalType":"bytes32","name":"listingId","type":"bytes32"},{"indexed":true,"internalType":"address","name":"expiredBy","type":"address"},{"indexed":false,"internalType":"uint256","name":"expiredAt","type":"uint256"}],"name":"OfferExpired","type":"event"},{"anonymous":false,"inputs":[{"indexed":true,"internalType":"bytes32","name":"offerId","type":"bytes32"},{"indexed":true,"internalType":"bytes32","name":"listingId","type":"bytes32"},{"indexed":true,"internalType":"address","name":"buyer","type":"address"},{"indexed":false,"internalType":"uint256","name":"quantity","type":"uint256"},{"indexed":false,"internalType":"uint256","name":"totalPrice","type":"uint256"},{"indexed":false,"internalType":"uint256","name":"placedAt","type":"uint256"}],"name":"OfferPlaced","type":"event"},{"anonymous":false,"inputs":[{"indexed":true,"internalType":"bytes32","name":"offerId","type":"bytes32"},{"indexed":true,"internalType":"bytes32","name":"listingId","type":"bytes32"},{"indexed":true,"internalType":"address","name":"buyer","type":"address"},{"indexed":false,"internalType":"uint256","name":"amount","type":"uint256"},{"indexed":false,"internalType":"uint256","name":"refundedAt","type":"uint256"}],"name":"OfferRefunded","type":"event"},{"anonymous":false,"inputs":[{"indexed":true,"internalType":"bytes32","name":"offerId","type":"bytes32"},{"indexed":true,"internalType":"bytes32","name":"listingId","type":"bytes32"},{"indexed":true,"internalType":"address","name":"seller","type":"address"},{"indexed":false,"internalType":"bytes32","name":"reasonCode","type":"bytes32"},{"indexed":false,"internalType":"uint256","name":"rejectedAt","type":"uint256"}],"name":"OfferRejected","type":"event"},{"anonymous":false,"inputs":[{"indexed":true,"internalType":"bytes32","name":"offerId","type":"bytes32"},{"indexed":true,"internalType":"bytes32","name":"listingId","type":"bytes32"},{"indexed":true,"internalType":"address","name":"buyer","type":"address"},{"indexed":false,"internalType":"bytes32","name":"fieldMask","type":"bytes32"},{"indexed":false,"internalType":"uint256","name":"quantity","type":"uint256"},{"indexed":false,"internalType":"uint256","name":"totalPrice","type":"uint256"},{"indexed":false,"internalType":"uint256","name":"updatedAt","type":"uint256"}],"name":"OfferUpdated","type":"event"},{"inputs":[{"internalType":"bytes32","name":"offerId","type":"bytes32"}],"name":"acceptOffer","outputs":[],"stateMutability":"nonpayable","type":"function"},{"inputs":[{"internalType":"bytes32","name":"listingId","type":"bytes32"},{"internalType":"uint256","name":"newTotalQuantity","type":"uint256"},{"internalType":"bytes32","name":"reasonCode","type":"bytes32"}],"name":"adjustListingQuantity","outputs":[],"stateMutability":"nonpayable","type":"function"},{"inputs":[{"internalType":"bytes32","name":"listingId","type":"bytes32"}],"name":"cancelListing","outputs":[],"stateMutability":"nonpayable","type":"function"},{"inputs":[{"internalType":"bytes32","name":"listingId","type":"bytes32"},{"internalType":"bytes32","name":"passportId","type":"bytes32"},{"internalType":"uint256","name":"unitPrice","type":"uint256"},{"internalType":"uint256","name":"quantity","type":"uint256"}],"name":"createListing","outputs":[],"stateMutability":"nonpayable","type":"function"},{"inputs":[{"internalType":"bytes32","name":"offerId","type":"bytes32"}],"name":"expireOffer","outputs":[],"stateMutability":"nonpayable","type":"function"},{"inputs":[{"internalType":"bytes32","name":"","type":"bytes32"}],"name":"listings","outputs":[{"internalType":"address","name":"seller","type":"address"},{"internalType":"bytes32","name":"passportId","type":"bytes32"},{"internalType":"uint256","name":"unitPrice","type":"uint256"},{"internalType":"uint256","name":"totalQuantity","type":"uint256"},{"internalType":"uint256","name":"availableQuantity","type":"uint256"},{"internalType":"enum Marketplace.ListingStatus","name":"status","type":"uint8"}],"stateMutability":"view","type":"function"},{"inputs":[{"internalType":"bytes32","name":"","type":"bytes32"}],"name":"offers","outputs":[{"internalType":"address","name":"buyer","type":"address"},{"internalType":"bytes32","name":"listingId","type":"bytes32"},{"internalType":"uint256","name":"quantity","type":"uint256"},{"internalType":"uint256","name":"totalPrice","type":"uint256"},{"internalType":"enum Marketplace.OfferStatus","name":"status","type":"uint8"}],"stateMutability":"view","type":"function"},{"inputs":[{"internalType":"bytes32","name":"offerId","type":"bytes32"},{"internalType":"bytes32","name":"listingId","type":"bytes32"},{"internalType":"uint256","name":"quantity","type":"uint256"}],"name":"placeOffer","outputs":[],"stateMutability":"payable","type":"function"},{"inputs":[{"internalType":"bytes32","name":"offerId","type":"bytes32"},{"internalType":"bytes32","name":"reasonCode","type":"bytes32"}],"name":"rejectOffer","outputs":[],"stateMutability":"nonpayable","type":"function"},{"inputs":[{"internalType":"bytes32","name":"listingId","type":"bytes32"},{"internalType":"enum Marketplace.ListingStatus","name":"newStatus","type":"uint8"},{"internalType":"bytes32","name":"reasonCode","type":"bytes32"}],"name":"setListingStatus","outputs":[],"stateMutability":"nonpayable","type":"function"},{"inputs":[{"internalType":"bytes32","name":"listingId","type":"bytes32"},{"internalType":"uint256","name":"unitPrice","type":"uint256"},{"internalType":"bytes32","name":"fieldMask","type":"bytes32"}],"name":"updateListing","outputs":[],"stateMutability":"nonpayable","type":"function"},{"inputs":[{"internalType":"bytes32","name":"offerId","type":"bytes32"},{"internalType":"uint256","name":"newQuantity","type":"uint256"},{"internalType":"bytes32","name":"fieldMask","type":"bytes32"}],"name":"updateOffer","outputs":[],"stateMutability":"payable","type":"function"}],"evm":{"bytecode":{"linkReferences":{},"object":"6080604052348015600f57600080fd5b5061175c8061001f6000396000f3fe6080604052600436106100a75760003560e01c8063a22b299e11610064578063a22b299e146101a6578063b2530e98146101c6578063b596a15e146101e6578063c18b8db414610206578063f8279bb714610275578063fb3bcaa11461029557600080fd5b80633db102b1146100ac578063474d3ff0146100ce578063558ae740146101405780637a6097b0146101605780639299e552146101735780639fd0f29014610193575b600080fd5b3480156100b857600080fd5b506100cc6100c73660046114e6565b6102b5565b005b3480156100da57600080fd5b506101266100e93660046114e6565b6001602081905260009182526040909120805491810154600282015460038301546004909301546001600160a01b03909416939192909160ff1685565b604051610137959493929190611515565b60405180910390f35b34801561014c57600080fd5b506100cc61015b36600461155a565b6104b7565b6100cc61016e36600461158c565b61063d565b34801561017f57600080fd5b506100cc61018e3660046114e6565b610831565b6100cc6101a136600461158c565b610970565b3480156101b257600080fd5b506100cc6101c13660046115b8565b610cb4565b3480156101d257600080fd5b506100cc6101e136600461158c565b610eab565b3480156101f257600080fd5b506100cc6102013660046114e6565b610fa2565b34801561021257600080fd5b506102636102213660046114e6565b6000602081905290815260409020805460018201546002830154600384015460048501546005909501546001600160a01b039094169492939192909160ff1686565b604051610137969594939291906115ee565b34801561028157600080fd5b506100cc610290366004611632565b6111d8565b3480156102a157600080fd5b506100cc6102b036600461158c565b61133e565b600081815260016020526040902080546001600160a01b03166102f357604051630e46e21960e21b8152600481018390526024015b60405180910390fd5b600060048083015460ff169081111561030e5761030e6114ff565b1461032f57604051630631606960e41b8152600481018390526024016102ea565b6001810154600090815260208190526040902080546001600160a01b03166103725781600101546040516345abffa960e01b81526004016102ea91815260200190565b80546001600160a01b0316331461039b576040516282b42960e81b815260040160405180910390fd5b6004828101805460ff19169091179055600182015460405142815233919085907fc194a3fa4aab1986acf67b3c5009da97e449e9bd7b9ae0f7a1ff755bf79103a69060200160405180910390a4815460038301546040516000926001600160a01b031691908381818185875af1925050503d8060008114610438576040519150601f19603f3d011682016040523d82523d6000602084013e61043d565b606091505b505090508061045e5760405162461bcd60e51b81526004016102ea9061166e565b825460018401546003850154604080519182524260208301526001600160a01b039093169287917f6439e865ee376c5838016f9097a569e02081cc1429e58d8a2e17c312088040d091015b60405180910390a450505050565b6000848152602081905260409020546001600160a01b0316156104f057604051631263165760e11b8152600481018590526024016102ea565b806000036105115760405163524f409b60e01b815260040160405180910390fd5b6040805160c08101825233815260208082018681528284018681526060840186815260808501878152600060a087018181528c82529581905296909620855181546001600160a01b0319166001600160a01b039091161781559251600180850191909155915160028085019190915590516003840155945160048301559151600582018054949592949193909260ff199092169184908111156105b6576105b66114ff565b021790555050604080518481526020810184905242818301529051859250339187917f5ccd0864e717e18edc5facee4691d61c80a0cebb03ba53698d1116fd287a4d1d9181900360600190a4336001600160a01b0316846000805160206117078339815191526000804260405161062f93929190611697565b60405180910390a350505050565b600082815260208190526040902080546001600160a01b0316610676576040516345abffa960e01b8152600481018490526024016102ea565b6000600582015460ff166002811115610691576106916114ff565b146106b257604051632770456160e11b8152600481018490526024016102ea565b6000848152600160205260409020546001600160a01b0316156106eb57604051632cef11b560e21b8152600481018590526024016102ea565b8115806106fb5750806004015482115b156107195760405163524f409b60e01b815260040160405180910390fd5b600082826002015461072b91906116d6565b905080341461074d5760405163569e8c1160e01b815260040160405180910390fd5b6040805160a0810182523381526020808201878152828401878152606084018681526000608086018181528c8252600195869052969020855181546001600160a01b0319166001600160a01b03909116178155925183850155905160028301555160038201559251600480850180549495949293909260ff19169184908111156107d9576107d96114ff565b02179055505060408051858152602081018490524291810191909152339150859087907fac5237a19a2f187bdcd45ea4ec98443b81f9cea463d86b02cdb3732c875e9166906060015b60405180910390a45050505050565b600081815260208190526040902080546001600160a01b031661086a576040516345abffa960e01b8152600481018390526024016102ea565b6000600582015460ff166002811115610885576108856114ff565b146108a657604051632770456160e11b8152600481018390526024016102ea565b80546001600160a01b031633146108cf576040516282b42960e81b815260040160405180910390fd5b600581018054600260ff198216811790925560405160ff90911691339185916000805160206117078339815191529161090b9186914290611697565b60405180910390a36f1cd95b1b195c97d8d85b98d95b1b195960821b336001600160a01b0316847fc49830edddd743b706185085849ac6da0ae4f347fe23ca8747d28c64cd8e801f4260405161096391815260200190565b60405180910390a4505050565b600083815260016020526040902080546001600160a01b03166109a957604051630e46e21960e21b8152600481018590526024016102ea565b600060048083015460ff16908111156109c4576109c46114ff565b146109e557604051630631606960e41b8152600481018590526024016102ea565b80546001600160a01b03163314610a0e576040516282b42960e81b815260040160405180910390fd5b6001810154600090815260208190526040902080546001600160a01b0316610a515781600101546040516345abffa960e01b81526004016102ea91815260200190565b6000600582015460ff166002811115610a6c57610a6c6114ff565b14610a92578160010154604051632770456160e11b81526004016102ea91815260200190565b831580610aa25750806004015484115b15610ac05760405163524f409b60e01b815260040160405180910390fd5b6000848260020154610ad291906116d6565b90508260030154811115610b1a576000836003015482610af291906116f3565b9050803414610b145760405163569e8c1160e01b815260040160405180910390fd5b50610c41565b8260030154811015610c22573415610b455760405163569e8c1160e01b815260040160405180910390fd5b6000818460030154610b5791906116f3565b84546040519192506000916001600160a01b039091169083908381818185875af1925050503d8060008114610ba8576040519150601f19603f3d011682016040523d82523d6000602084013e610bad565b606091505b5050905080610bce5760405162461bcd60e51b81526004016102ea9061166e565b84546001860154604080518581524260208201526001600160a01b03909316928b917f6439e865ee376c5838016f9097a569e02081cc1429e58d8a2e17c312088040d0910160405180910390a45050610c41565b3415610c415760405163569e8c1160e01b815260040160405180910390fd5b60028301859055600383018190558254600184015460408051878152602081018990529081018490524260608201526001600160a01b039092169188907fb91c89a71088a2fd065ab33206ce7f570b0351387071ac12599d9af2975ee46a906080015b60405180910390a4505050505050565b600082815260016020526040902080546001600160a01b0316610ced57604051630e46e21960e21b8152600481018490526024016102ea565b600060048083015460ff1690811115610d0857610d086114ff565b14610d2957604051630631606960e41b8152600481018490526024016102ea565b6001810154600090815260208190526040902080546001600160a01b0316610d6c5781600101546040516345abffa960e01b81526004016102ea91815260200190565b80546001600160a01b03163314610d95576040516282b42960e81b815260040160405180910390fd5b60048201805460ff1916600217905560018201546040805185815242602082015233929187917f026b3a8db7df0b9b8ee2bc5bd0dfa7f41ec06321c82f4d32efcb0d8d79bb13db910160405180910390a4815460038301546040516000926001600160a01b031691908381818185875af1925050503d8060008114610e36576040519150601f19603f3d011682016040523d82523d6000602084013e610e3b565b606091505b5050905080610e5c5760405162461bcd60e51b81526004016102ea9061166e565b825460018401546003850154604080519182524260208301526001600160a01b039093169288917f6439e865ee376c5838016f9097a569e02081cc1429e58d8a2e17c312088040d09101610822565b600083815260208190526040902080546001600160a01b0316610ee4576040516345abffa960e01b8152600481018590526024016102ea565b6000600582015460ff166002811115610eff57610eff6114ff565b14610f2057604051632770456160e11b8152600481018590526024016102ea565b80546001600160a01b03163314610f49576040516282b42960e81b815260040160405180910390fd5b60028101839055600381015460048201546040805186815260208101939093528201524260608201528290339086907f85d1a18c7260b362e617d88f5cad220118a71523b566162bb27e3f573acc2878906080016104a9565b600081815260016020526040902080546001600160a01b0316610fdb57604051630e46e21960e21b8152600481018390526024016102ea565b600060048083015460ff1690811115610ff657610ff66114ff565b1461101757604051630631606960e41b8152600481018390526024016102ea565b6001810154600090815260208190526040902080546001600160a01b031661105a5781600101546040516345abffa960e01b81526004016102ea91815260200190565b80546001600160a01b03163314611083576040516282b42960e81b815260040160405180910390fd5b6004828101805460ff19166001179055600283015490820180546000906110ab9084906116f3565b909155505060048101546000036111075760058101805460ff81169160019160ff1916828002179055506001808401546040513392600080516020611707833981519152916110fd9186914290611697565b60405180910390a3505b805460038301546040516000926001600160a01b031691908381818185875af1925050503d8060008114611157576040519150601f19603f3d011682016040523d82523d6000602084013e61115c565b606091505b505090508061117d5760405162461bcd60e51b81526004016102ea9061166e565b8154600184015484546003860154604080516001600160a01b0393841681526020810192909252429082015292169186907f0aebfb5a1655c21c7cd5797000b0aaa4c60e18197d3690751bf037c9de30b24f906060016104a9565b600083815260208190526040902080546001600160a01b0316611211576040516345abffa960e01b8152600481018590526024016102ea565b80546001600160a01b0316331461123a576040516282b42960e81b815260040160405180910390fd5b82600281111561124c5761124c6114ff565b600582015460ff166002811115611265576112656114ff565b036112835760405163088bd32360e11b815260040160405180910390fd5b60058101805460ff811691859160ff191660018360028111156112a8576112a86114ff565b0217905550336001600160a01b0316856000805160206117078339815191528387426040516112d993929190611697565b60405180910390a360028460028111156112f5576112f56114ff565b036113375782336001600160a01b0316867fc49830edddd743b706185085849ac6da0ae4f347fe23ca8747d28c64cd8e801f4260405161082291815260200190565b5050505050565b600083815260208190526040902080546001600160a01b0316611377576040516345abffa960e01b8152600481018590526024016102ea565b6000600582015460ff166002811115611392576113926114ff565b146113b357604051632770456160e11b8152600481018590526024016102ea565b80546001600160a01b031633146113dc576040516282b42960e81b815260040160405180910390fd5b6000816004015482600301546113f291906116f3565b905083158061140057508084105b1561141e5760405163524f409b60e01b815260040160405180910390fd5b6003820180549085905561143282866116f3565b60048401556040805182815260208101879052428183015290513391869189917f5e81a6a5b7885f1621a4843794c781bde94059ee8c9dfc0cc4c7fe09d5bd5045919081900360600190a4600283015460038401546004850154604080519384526020840192909252908201524260608201526d746f74616c5f7175616e7469747960901b90339088907f85d1a18c7260b362e617d88f5cad220118a71523b566162bb27e3f573acc287890608001610ca4565b6000602082840312156114f857600080fd5b5035919050565b634e487b7160e01b600052602160045260246000fd5b6001600160a01b038616815260208101859052604081018490526060810183905260a081016005831061154a5761154a6114ff565b8260808301529695505050505050565b6000806000806080858703121561157057600080fd5b5050823594602084013594506040840135936060013592509050565b6000806000606084860312156115a157600080fd5b505081359360208301359350604090920135919050565b600080604083850312156115cb57600080fd5b50508035926020909101359150565b600381106115ea576115ea6114ff565b9052565b6001600160a01b03871681526020810186905260408101859052606081018490526080810183905260c0810161162760a08301846115da565b979650505050505050565b60008060006060848603121561164757600080fd5b8335925060208401356003811061165d57600080fd5b929592945050506040919091013590565b6020808252600f908201526e151c985b9cd9995c8819985a5b1959608a1b604082015260600190565b606081016116a582866115da565b6116b260208301856115da565b826040830152949350505050565b634e487b7160e01b600052601160045260246000fd5b80820281158282048414176116ed576116ed6116c0565b92915050565b818103818111156116ed576116ed6116c056fecd0f01b02be9c1d1cb811a13237434200cd689cd8ee17bf92dbb5db324606cf5a2646970667358221220e9166d8775d54a11ad639a0cb1381d597fec7380a9b1a2c548a7ebbcb9d8076764736f6c634300081a0033","opcodes":"PUSH1 0x80 PUSH1 0x40 MSTORE CALLVALUE DUP1 ISZERO PUSH1 0xF JUMPI PUSH1 0x0 DUP1 REVERT JUMPDEST POP PUSH2 0x175C DUP1 PUSH2 0x1F PUSH1 0x0 CODECOPY PUSH1 0x0 RETURN INVALID PUSH1 0x80 PUSH1 0x40 MSTORE PUSH1 0x4 CALLDATASIZE LT PUSH2 0xA7 JUMPI PUSH1 0x0 CALLDATALOAD PUSH1 0xE0 SHR DUP1 PUSH4 0xA22B299E GT PUSH2 0x64 JUMPI DUP1 PUSH4 0xA22B299E EQ PUSH2 0x1A6 JUMPI DUP1 PUSH4 0xB2530E98 EQ PUSH2 0x1C6 JUMPI DUP1 PUSH4 0xB596A15E EQ PUSH2 0x1E6 JUMPI DUP1 PUSH4 0xC18B8DB4 EQ PUSH2 0x206 JUMPI DUP1 PUSH4 0xF8279BB7 EQ PUSH2 0x275 JUMPI DUP1 PUSH4 0xFB3BCAA1 EQ PUSH2 0x295 JUMPI PUSH1 0x0 DUP1 REVERT JUMPDEST DUP1 PUSH4 0x3DB102B1 EQ PUSH2 0xAC JUMPI DUP1 PUSH4 0x474D3FF0 EQ PUSH2 0xCE JUMPI DUP1 PUSH4 0x558AE740 EQ PUSH2 0x140 JUMPI DUP1 PUSH4 0x7A6097B0 EQ PUSH2 0x160 JUMPI DUP1 PUSH4 0x9299E552 EQ PUSH2 0x173 JUMPI DUP1 PUSH4 0x9FD0F290 EQ PUSH2 0x193 JUMPI JUMPDEST PUSH1 0x0 DUP1 REVERT JUMPDEST CALLVALUE DUP1 ISZERO PUSH2 0xB8 JUMPI PUSH1 0x0 DUP1 REVERT JUMPDEST POP PUSH2 0xCC PUSH2 0xC7 CALLDATASIZE PUSH1 0x4 PUSH2 0x14E6 JUMP JUMPDEST PUSH2 0x2B5 JUMP JUMPDEST STOP JUMPDEST CALLVALUE DUP1 ISZERO PUSH2 0xDA JUMPI PUSH1 0x0 DUP1 REVERT JUMPDEST POP PUSH2 0x126 PUSH2 0xE9 CALLDATASIZE PUSH1 0x4 PUSH2 0x14E6 JUMP JUMPDEST PUSH1 0x1 PUSH1 0x20 DUP2 SWAP1 MSTORE PUSH1 0x0 SWAP2 DUP3 MSTORE PUSH1 0x40 SWAP1 SWAP2 KECCAK256 DUP1 SLOAD SWAP2 DUP2 ADD SLOAD PUSH1 0x2 DUP3 ADD SLOAD PUSH1 0x3 DUP4 ADD SLOAD PUSH1 0x4 SWAP1 SWAP4 ADD SLOAD PUSH1 0x1 PUSH1 0x1 PUSH1 0xA0 SHL SUB SWAP1 SWAP5 AND SWAP4 SWAP2 SWAP3 SWAP1 SWAP2 PUSH1 0xFF AND DUP6 JUMP JUMPDEST PUSH1 0x40 MLOAD PUSH2 0x137 SWAP6 SWAP5 SWAP4 SWAP3 SWAP2 SWAP1 PUSH2 0x1515 JUMP JUMPDEST PUSH1 0x40 MLOAD DUP1 SWAP2 SUB SWAP1 RETURN JUMPDEST CALLVALUE DUP1 ISZERO PUSH2 0x14C JUMPI PUSH1 0x0 DUP1 REVERT JUMPDEST POP PUSH2 0xCC PUSH2 0x15B CALLDATASIZE PUSH1 0x4 PUSH2 0x155A JUMP JUMPDEST PUSH2 0x4B7 JUMP JUMPDEST PUSH2 0xCC PUSH2 0x16E CALLDATASIZE PUSH1 0x4 PUSH2 0x158C JUMP JUMPDEST PUSH2 0x63D JUMP JUMPDEST CALLVALUE DUP1 ISZERO PUSH2 0x17F JUMPI PUSH1 0x0 DUP1 REVERT JUMPDEST POP PUSH2 0xCC PUSH2 0x18E CALLDATASIZE PUSH1 0x4 PUSH2 0x14E6 JUMP JUMPDEST PUSH2 0x831 JUMP JUMPDEST PUSH2 0xCC PUSH2 0x1A1 CALLDATASIZE PUSH1 0x4 PUSH2 0x158C JUMP JUMPDEST PUSH2 0x970 JUMP JUMPDEST CALLVALUE DUP1 ISZERO PUSH2 0x1B2 JUMPI PUSH1 0x0 DUP1 REVERT JUMPDEST POP PUSH2 0xCC PUSH2 0x1C1 CALLDATASIZE PUSH1 0x4 PUSH2 0x15B8 JUMP JUMPDEST PUSH2 0xCB4 JUMP JUMPDEST CALLVALUE DUP1 ISZERO PUSH2 0x1D2 JUMPI PUSH1 0x0 DUP1 REVERT JUMPDEST POP PUSH2 0xCC PUSH2 0x1E1 CALLDATASIZE PUSH1 0x4 PUSH2 0x158C JUMP JUMPDEST PUSH2 0xEAB JUMP JUMPDEST CALLVALUE DUP1 ISZERO PUSH2 0x1F2 JUMPI PUSH1 0x0 DUP1 REVERT JUMPDEST POP PUSH2 0xCC PUSH2 0x201 CALLDATASIZE PUSH1 0x4 PUSH2 0x14E6 JUMP JUMPDEST PUSH2 0xFA2 JUMP JUMPDEST CALLVALUE DUP1 ISZERO PUSH2 0x212 JUMPI PUSH1 0x0 DUP1 REVERT JUMPDEST POP PUSH2 0x263 PUSH2 0x221 CALLDATASIZE PUSH1 0x4 PUSH2 0x14E6 JUMP JUMPDEST PUSH1 0x0 PUSH1 0x20 DUP2 SWAP1 MSTORE SWAP1 DUP2 MSTORE PUSH1 0x40 SWAP1 KECCAK256 DUP1 SLOAD PUSH1 0x1 DUP3 ADD SLOAD PUSH1 0x2 DUP4 ADD SLOAD PUSH1 0x3 DUP5 ADD SLOAD PUSH1 0x4 DUP6 ADD SLOAD PUSH1 0x5 SWAP1 SWAP6 ADD SLOAD PUSH1 0x1 PUSH1 0x1 PUSH1 0xA0 SHL SUB SWAP1 SWAP5 AND SWAP5 SWAP3 SWAP4 SWAP2 SWAP3 SWAP1 SWAP2 PUSH1 0xFF AND DUP7 JUMP JUMPDEST PUSH1 0x40 MLOAD PUSH2 0x137 SWAP7 SWAP6 SWAP5 SWAP4 SWAP3 SWAP2 SWAP1 PUSH2 0x15EE JUMP JUMPDEST CALLVALUE DUP1 ISZERO PUSH2 0x281 JUMPI PUSH1 0x0 DUP1 REVERT JUMPDEST POP PUSH2 0xCC PUSH2 0x290 CALLDATASIZE PUSH1 0x4 PUSH2 0x1632 JUMP JUMPDEST PUSH2 0x11D8 JUMP JUMPDEST CALLVALUE DUP1 ISZERO PUSH2 0x2A1 JUMPI PUSH1 0x0 DUP1 REVERT JUMPDEST POP PUSH2 0xCC PUSH2 0x2B0 CALLDATASIZE PUSH1 0x4 PUSH2 0x158C JUMP JUMPDEST PUSH2 0x133E JUMP JUMPDEST PUSH1 0x0 DUP2 DUP2 MSTORE PUSH1 0x1 PUSH1 0x20 MSTORE PUSH1 0x40 SWAP1 KECCAK256 DUP1 SLOAD PUSH1 0x1 PUSH1 0x1 PUSH1 0xA0 SHL SUB AND PUSH2 0x2F3 JUMPI PUSH1 0x40 MLOAD PUSH4 0xE46E219 PUSH1 0xE2 SHL DUP2 MSTORE PUSH1 0x4 DUP2 ADD DUP4 SWAP1 MSTORE PUSH1 0x24 ADD JUMPDEST PUSH1 0x40 MLOAD DUP1 SWAP2 SUB SWAP1 REVERT JUMPDEST PUSH1 0x0 PUSH1 0x4 DUP1 DUP4 ADD SLOAD PUSH1 0xFF AND SWAP1 DUP2 GT ISZERO PUSH2 0x30E JUMPI PUSH2 0x30E PUSH2 0x14FF JUMP JUMPDEST EQ PUSH2 0x32F JUMPI PUSH1 0x40 MLOAD PUSH4 0x6316069 PUSH1 0xE4 SHL DUP2 MSTORE PUSH1 0x4 DUP2 ADD DUP4 SWAP1 MSTORE PUSH1 0x24 ADD PUSH2 0x2EA JUMP JUMPDEST PUSH1 0x1 DUP2 ADD SLOAD PUSH1 0x0 SWAP1 DUP2 MSTORE PUSH1 0x20 DUP2 SWAP1 MSTORE PUSH1 0x40 SWAP1 KECCAK256 DUP1 SLOAD PUSH1 0x1 PUSH1 0x1 PUSH1 0xA0 SHL SUB AND PUSH2 0x372 JUMPI DUP2 PUSH1 0x1 ADD SLOAD PUSH1 0x40 MLOAD PUSH4 0x45ABFFA9 PUSH1 0xE0 SHL DUP2 MSTORE PUSH1 0x4 ADD PUSH2 0x2EA SWAP2 DUP2 MSTORE PUSH1 0x20 ADD SWAP1 JUMP JUMPDEST DUP1 SLOAD PUSH1 0x1 PUSH1 0x1 PUSH1 0xA0 SHL SUB AND CALLER EQ PUSH2 0x39B JUMPI PUSH1 0x40 MLOAD PUSH3 0x82B429 PUSH1 0xE8 SHL DUP2 MSTORE PUSH1 0x4 ADD PUSH1 0x40 MLOAD DUP1 SWAP2 SUB SWAP1 REVERT JUMPDEST PUSH1 0x4 DUP3 DUP2 ADD DUP1 SLOAD PUSH1 0xFF NOT AND SWAP1 SWAP2 OR SWAP1 SSTORE PUSH1 0x1 DUP3 ADD SLOAD PUSH1 0x40 MLOAD TIMESTAMP DUP2 MSTORE CALLER SWAP2 SWAP1 DUP6 SWAP1 PUSH32 0xC194A3FA4AAB1986ACF67B3C5009DA97E449E9BD7B9AE0F7A1FF755BF79103A6 SWAP1 PUSH1 0x20 ADD PUSH1 0x40 MLOAD DUP1 SWAP2 SUB SWAP1 LOG4 DUP2 SLOAD PUSH1 0x3 DUP4 ADD SLOAD PUSH1 0x40 MLOAD PUSH1 0x0 SWAP3 PUSH1 0x1 PUSH1 0x1 PUSH1 0xA0 SHL SUB AND SWAP2 SWAP1 DUP4 DUP2 DUP2 DUP2 DUP6 DUP8 GAS CALL SWAP3 POP POP POP RETURNDATASIZE DUP1 PUSH1 0x0 DUP2 EQ PUSH2 0x438 JUMPI PUSH1 0x40 MLOAD SWAP2 POP PUSH1 0x1F NOT PUSH1 0x3F RETURNDATASIZE ADD AND DUP3 ADD PUSH1 0x40 MSTORE RETURNDATASIZE DUP3 MSTORE RETURNDATASIZE PUSH1 0x0 PUSH1 0x20 DUP5 ADD RETURNDATACOPY PUSH2 0x43D JUMP JUMPDEST PUSH1 0x60 SWAP2 POP JUMPDEST POP POP SWAP1 POP DUP1 PUSH2 0x45E JUMPI PUSH1 0x40 MLOAD PUSH3 0x461BCD PUSH1 0xE5 SHL DUP2 MSTORE PUSH1 0x4 ADD PUSH2 0x2EA SWAP1 PUSH2 0x166E JUMP JUMPDEST DUP3 SLOAD PUSH1 0x1 DUP5 ADD SLOAD PUSH1 0x3 DUP6 ADD SLOAD PUSH1 0x40 DUP1 MLOAD SWAP2 DUP3 MSTORE TIMESTAMP PUSH1 0x20 DUP4 ADD MSTORE PUSH1 0x1 PUSH1 0x1 PUSH1 0xA0 SHL SUB SWAP1 SWAP4 AND SWAP3 DUP8 SWAP2 PUSH32 0x6439E865EE376C5838016F9097A569E02081CC1429E58D8A2E17C312088040D0 SWAP2 ADD JUMPDEST PUSH1 0x40 MLOAD DUP1 SWAP2 SUB SWAP1 LOG4 POP POP POP POP JUMP JUMPDEST PUSH1 0x0 DUP5 DUP2 MSTORE PUSH1 0x20 DUP2 SWAP1 MSTORE PUSH1 0x40 SWAP1 KECCAK256 SLOAD PUSH1 0x1 PUSH1 0x1 PUSH1 0xA0 SHL SUB AND ISZERO PUSH2 0x4F0 JUMPI PUSH1 0x40 MLOAD PUSH4 0x12631657 PUSH1 0xE1 SHL DUP2 MSTORE PUSH1 0x4 DUP2 ADD DUP6 SWAP1 MSTORE PUSH1 0x24 ADD PUSH2 0x2EA JUMP JUMPDEST DUP1 PUSH1 0x0 SUB PUSH2 0x511 JUMPI PUSH1 0x40 MLOAD PUSH4 0x524F409B PUSH1 0xE0 SHL DUP2 MSTORE PUSH1 0x4 ADD PUSH1 0x40 MLOAD DUP1 SWAP2 SUB SWAP1 REVERT JUMPDEST PUSH1 0x40 DUP1 MLOAD PUSH1 0xC0 DUP2 ADD DUP3 MSTORE CALLER DUP2 MSTORE PUSH1 0x20 DUP1 DUP3 ADD DUP7 DUP2 MSTORE DUP3 DUP5 ADD DUP7 DUP2 MSTORE PUSH1 0x60 DUP5 ADD DUP7 DUP2 MSTORE PUSH1 0x80 DUP6 ADD DUP8 DUP2 MSTORE PUSH1 0x0 PUSH1 0xA0 DUP8 ADD DUP2 DUP2 MSTORE DUP13 DUP3 MSTORE SWAP6 DUP2 SWAP1 MSTORE SWAP7 SWAP1 SWAP7 KECCAK256 DUP6 MLOAD DUP2 SLOAD PUSH1 0x1 PUSH1 0x1 PUSH1 0xA0 SHL SUB NOT AND PUSH1 0x1 PUSH1 0x1 PUSH1 0xA0 SHL SUB SWAP1 SWAP2 AND OR DUP2 SSTORE SWAP3 MLOAD PUSH1 0x1 DUP1 DUP6 ADD SWAP2 SWAP1 SWAP2 SSTORE SWAP2 MLOAD PUSH1 0x2 DUP1 DUP6 ADD SWAP2 SWAP1 SWAP2 SSTORE SWAP1 MLOAD PUSH1 0x3 DUP5 ADD SSTORE SWAP5 MLOAD PUSH1 0x4 DUP4 ADD SSTORE SWAP2 MLOAD PUSH1 0x5 DUP3 ADD DUP1 SLOAD SWAP5 SWAP6 SWAP3 SWAP5 SWAP2 SWAP4 SWAP1 SWAP3 PUSH1 0xFF NOT SWAP1 SWAP3 AND SWAP2 DUP5 SWAP1 DUP2 GT ISZERO PUSH2 0x5B6 JUMPI PUSH2 0x5B6 PUSH2 0x14FF JUMP JUMPDEST MUL OR SWAP1 SSTORE POP POP PUSH1 0x40 DUP1 MLOAD DUP5 DUP2 MSTORE PUSH1 0x20 DUP2 ADD DUP5 SWAP1 MSTORE TIMESTAMP DUP2 DUP4 ADD MSTORE SWAP1 MLOAD DUP6 SWAP3 POP CALLER SWAP2 DUP8 SWAP2 PUSH32 0x5CCD0864E717E18EDC5FACEE4691D61C80A0CEBB03BA53698D1116FD287A4D1D SWAP2 DUP2 SWAP1 SUB PUSH1 0x60 ADD SWAP1 LOG4 CALLER PUSH1 0x1 PUSH1 0x1 PUSH1 0xA0 SHL SUB AND DUP5 PUSH1 0x0 DUP1 MLOAD PUSH1 0x20 PUSH2 0x1707 DUP4 CODECOPY DUP2 MLOAD SWAP2 MSTORE PUSH1 0x0 DUP1 TIMESTAMP PUSH1 0x40 MLOAD PUSH2 0x62F SWAP4 SWAP3 SWAP2 SWAP1 PUSH2 0x1697 JUMP JUMPDEST PUSH1 0x40 MLOAD DUP1 SWAP2 SUB SWAP1 LOG3 POP POP POP POP JUMP JUMPDEST PUSH1 0x0 DUP3 DUP2 MSTORE PUSH1 0x20 DUP2 SWAP1 MSTORE PUSH1 0x40 SWAP1 KECCAK256 DUP1 SLOAD PUSH1 0x1 PUSH1 0x1 PUSH1 0xA0 SHL SUB AND PUSH2 0x676 JUMPI PUSH1 0x40 MLOAD PUSH4 0x45ABFFA9 PUSH1 0xE0 SHL DUP2 MSTORE PUSH1 0x4 DUP2 ADD DUP5 SWAP1 MSTORE PUSH1 0x24 ADD PUSH2 0x2EA JUMP JUMPDEST PUSH1 0x0 PUSH1 0x5 DUP3 ADD SLOAD PUSH1 0xFF AND PUSH1 0x2 DUP2 GT ISZERO PUSH2 0x691 JUMPI PUSH2 0x691 PUSH2 0x14FF JUMP JUMPDEST EQ PUSH2 0x6B2 JUMPI PUSH1 0x40 MLOAD PUSH4 0x27704561 PUSH1 0xE1 SHL DUP2 MSTORE PUSH1 0x4 DUP2 ADD DUP5 SWAP1 MSTORE PUSH1 0x24 ADD PUSH2 0x2EA JUMP JUMPDEST PUSH1 0x0 DUP5 DUP2 MSTORE PUSH1 0x1 PUSH1 0x20 MSTORE PUSH1 0x40 SWAP1 KECCAK256 SLOAD PUSH1 0x1 PUSH1 0x1 PUSH1 0xA0 SHL SUB AND ISZERO PUSH2 0x6EB JUMPI PUSH1 0x40 MLOAD PUSH4 0x2CEF11B5 PUSH1 0xE2 SHL DUP2 MSTORE PUSH1 0x4 DUP2 ADD DUP6 SWAP1 MSTORE PUSH1 0x24 ADD PUSH2 0x2EA JUMP JUMPDEST DUP2 ISZERO DUP1 PUSH2 0x6FB JUMPI POP DUP1 PUSH1 0x4 ADD SLOAD DUP3 GT JUMPDEST ISZERO PUSH2 0x719 JUMPI PUSH1 0x40 MLOAD PUSH4 0x524F409B PUSH1 0xE0 SHL DUP2 MSTORE PUSH1 0x4 ADD PUSH1 0x40 MLOAD DUP1 SWAP2 SUB SWAP1 REVERT JUMPDEST PUSH1 0x0 DUP3 DUP3 PUSH1 0x2 ADD SLOAD PUSH2 0x72B SWAP2 SWAP1 PUSH2 0x16D6 JUMP JUMPDEST SWAP1 POP DUP1 CALLVALUE EQ PUSH2 0x74D JUMPI PUSH1 0x40 MLOAD PUSH4 0x569E8C11 PUSH1 0xE0 SHL DUP2 MSTORE PUSH1 0x4 ADD PUSH1 0x40 MLOAD DUP1 SWAP2 SUB SWAP1 REVERT JUMPDEST PUSH1 0x40 DUP1 MLOAD PUSH1 0xA0 DUP2 ADD DUP3 MSTORE CALLER DUP2 MSTORE PUSH1 0x20 DUP1 DUP3 ADD DUP8 DUP2 MSTORE DUP3 DUP5 ADD DUP8 DUP2 MSTORE PUSH1 0x60 DUP5 ADD DUP7 DUP2 MSTORE PUSH1 0x0 PUSH1 0x80 DUP7 ADD DUP2 DUP2 MSTORE DUP13 DUP3 MSTORE PUSH1 0x1 SWAP6 DUP7 SWAP1 MSTORE SWAP7 SWAP1 KECCAK256 DUP6 MLOAD DUP2 SLOAD PUSH1 0x1 PUSH1 0x1 PUSH1 0xA0 SHL SUB NOT AND PUSH1 0x1 PUSH1 0x1 PUSH1 0xA0 SHL SUB SWAP1 SWAP2 AND OR DUP2 SSTORE SWAP3 MLOAD DUP4 DUP6 ADD SSTORE SWAP1 MLOAD PUSH1 0x2 DUP4 ADD SSTORE MLOAD PUSH1 0x3 DUP3 ADD SSTORE SWAP3 MLOAD PUSH1 0x4 DUP1 DUP6 ADD DUP1 SLOAD SWAP5 SWAP6 SWAP5 SWAP3 SWAP4 SWAP1 SWAP3 PUSH1 0xFF NOT AND SWAP2 DUP5 SWAP1 DUP2 GT ISZERO PUSH2 0x7D9 JUMPI PUSH2 0x7D9 PUSH2 0x14FF JUMP JUMPDEST MUL OR SWAP1 SSTORE POP POP PUSH1 0x40 DUP1 MLOAD DUP6 DUP2 MSTORE PUSH1 0x20 DUP2 ADD DUP5 SWAP1 MSTORE TIMESTAMP SWAP2 DUP2 ADD SWAP2 SWAP1 SWAP2 MSTORE CALLER SWAP2 POP DUP6 SWAP1 DUP8 SWAP1 PUSH32 0xAC5237A19A2F187BDCD45EA4EC98443B81F9CEA463D86B02CDB3732C875E9166 SWAP1 PUSH1 0x60 ADD JUMPDEST PUSH1 0x40 MLOAD DUP1 SWAP2 SUB SWAP1 LOG4 POP POP POP POP POP JUMP JUMPDEST PUSH1 0x0 DUP2 DUP2 MSTORE PUSH1 0x20 DUP2 SWAP1 MSTORE PUSH1 0x40 SWAP1 KECCAK256 DUP1 SLOAD PUSH1 0x1 PUSH1 0x1 PUSH1 0xA0 SHL SUB AND PUSH2 0x86A JUMPI PUSH1 0x40 MLOAD PUSH4 0x45ABFFA9 PUSH1 0xE0 SHL DUP2 MSTORE PUSH1 0x4 DUP2 ADD DUP4 SWAP1 MSTORE PUSH1 0x24 ADD PUSH2 0x2EA JUMP JUMPDEST PUSH1 0x0 PUSH1 0x5 DUP3 ADD SLOAD PUSH1 0xFF AND PUSH1 0x2 DUP2 GT ISZERO PUSH2 0x885 JUMPI PUSH2 0x885 PUSH2 0x14FF JUMP JUMPDEST EQ PUSH2 0x8A6 JUMPI PUSH1 0x40 MLOAD PUSH4 0x27704561 PUSH1 0xE1 SHL DUP2 MSTORE PUSH1 0x4 DUP2 ADD DUP4 SWAP1 MSTORE PUSH1 0x24 ADD PUSH2 0x2EA JUMP JUMPDEST DUP1 SLOAD PUSH1 0x1 PUSH1 0x1 PUSH1 0xA0 SHL SUB AND CALLER EQ PUSH2 0x8CF JUMPI PUSH1 0x40 MLOAD PUSH3 0x82B429 PUSH1 0xE8 SHL DUP2 MSTORE PUSH1 0x4 ADD PUSH1 0x40 MLOAD DUP1 SWAP2 SUB SWAP1 REVERT JUMPDEST PUSH1 0x5 DUP2 ADD DUP1 SLOAD PUSH1 0x2 PUSH1 0xFF NOT DUP3 AND DUP2 OR SWAP1 SWAP3 SSTORE PUSH1 0x40 MLOAD PUSH1 0xFF SWAP1 SWAP2 AND SWAP2 CALLER SWAP2 DUP6 SWAP2 PUSH1 0x0 DUP1 MLOAD PUSH1 0x20 PUSH2 0x1707 DUP4 CODECOPY DUP2 MLOAD SWAP2 MSTORE SWAP2 PUSH2 0x90B SWAP2 DUP7 SWAP2 TIMESTAMP SWAP1 PUSH2 0x1697 JUMP JUMPDEST PUSH1 0x40 MLOAD DUP1 SWAP2 SUB SWAP1 LOG3 PUSH16 0x1CD95B1B195C97D8D85B98D95B1B1959 PUSH1 0x82 SHL CALLER PUSH1 0x1 PUSH1 0x1 PUSH1 0xA0 SHL SUB AND DUP5 PUSH32 0xC49830EDDDD743B706185085849AC6DA0AE4F347FE23CA8747D28C64CD8E801F TIMESTAMP PUSH1 0x40 MLOAD PUSH2 0x963 SWAP2 DUP2 MSTORE PUSH1 0x20 ADD SWAP1 JUMP JUMPDEST PUSH1 0x40 MLOAD DUP1 SWAP2 SUB SWAP1 LOG4 POP POP POP JUMP JUMPDEST PUSH1 0x0 DUP4 DUP2 MSTORE PUSH1 0x1 PUSH1 0x20 MSTORE PUSH1 0x40 SWAP1 KECCAK256 DUP1 SLOAD PUSH1 0x1 PUSH1 0x1 PUSH1 0xA0 SHL SUB AND PUSH2 0x9A9 JUMPI PUSH1 0x40 MLOAD PUSH4 0xE46E219 PUSH1 0xE2 SHL DUP2 MSTORE PUSH1 0x4 DUP2 ADD DUP6 SWAP1 MSTORE PUSH1 0x24 ADD PUSH2 0x2EA JUMP JUMPDEST PUSH1 0x0 PUSH1 0x4 DUP1 DUP4 ADD SLOAD PUSH1 0xFF AND SWAP1 DUP2 GT ISZERO PUSH2 0x9C4 JUMPI PUSH2 0x9C4 PUSH2 0x14FF JUMP JUMPDEST EQ PUSH2 0x9E5 JUMPI PUSH1 0x40 MLOAD PUSH4 0x6316069 PUSH1 0xE4 SHL DUP2 MSTORE PUSH1 0x4 DUP2 ADD DUP6 SWAP1 MSTORE PUSH1 0x24 ADD PUSH2 0x2EA JUMP JUMPDEST DUP1 SLOAD PUSH1 0x1 PUSH1 0x1 PUSH1 0xA0 SHL SUB AND CALLER EQ PUSH2 0xA0E JUMPI PUSH1 0x40 MLOAD PUSH3 0x82B429 PUSH1 0xE8 SHL DUP2 MSTORE PUSH1 0x4 ADD PUSH1 0x40 MLOAD DUP1 SWAP2 SUB SWAP1 REVERT JUMPDEST PUSH1 0x1 DUP2 ADD SLOAD PUSH1 0x0 SWAP1 DUP2 MSTORE PUSH1 0x20 DUP2 SWAP1 MSTORE PUSH1 0x40 SWAP1 KECCAK256 DUP1 SLOAD PUSH1 0x1 PUSH1 0x1 PUSH1 0xA0 SHL SUB AND PUSH2 0xA51 JUMPI DUP2 PUSH1 0x1 ADD SLOAD PUSH1 0x40 MLOAD PUSH4 0x45ABFFA9 PUSH1 0xE0 SHL DUP2 MSTORE PUSH1 0x4 ADD PUSH2 0x2EA SWAP2 DUP2 MSTORE PUSH1 0x20 ADD SWAP1 JUMP JUMPDEST PUSH1 0x0 PUSH1 0x5 DUP3 ADD SLOAD PUSH1 0xFF AND PUSH1 0x2 DUP2 GT ISZERO PUSH2 0xA6C JUMPI PUSH2 0xA6C PUSH2 0x14FF JUMP JUMPDEST EQ PUSH2 0xA92 JUMPI DUP2 PUSH1 0x1 ADD SLOAD PUSH1 0x40 MLOAD PUSH4 0x27704561 PUSH1 0xE1 SHL DUP2 MSTORE PUSH1 0x4 ADD PUSH2 0x2EA SWAP2 DUP2 MSTORE PUSH1 0x20 ADD SWAP1 JUMP JUMPDEST DUP4 ISZERO DUP1 PUSH2 0xAA2 JUMPI POP DUP1 PUSH1 0x4 ADD SLOAD DUP5 GT JUMPDEST ISZERO PUSH2 0xAC0 JUMPI PUSH1 0x40 MLOAD PUSH4 0x524F409B PUSH1 0xE0 SHL DUP2 MSTORE PUSH1 0x4 ADD PUSH1 0x40 MLOAD DUP1 SWAP2 SUB SWAP1 REVERT JUMPDEST PUSH1 0x0 DUP5 DUP3 PUSH1 0x2 ADD SLOAD PUSH2 0xAD2 SWAP2 SWAP1 PUSH2 0x16D6 JUMP JUMPDEST SWAP1 POP DUP3 PUSH1 0x3 ADD SLOAD DUP2 GT ISZERO PUSH2 0xB1A JUMPI PUSH1 0x0 DUP4 PUSH1 0x3 ADD SLOAD DUP3 PUSH2 0xAF2 SWAP2 SWAP1 PUSH2 0x16F3 JUMP JUMPDEST SWAP1 POP DUP1 CALLVALUE EQ PUSH2 0xB14 JUMPI PUSH1 0x40 MLOAD PUSH4 0x569E8C11 PUSH1 0xE0 SHL DUP2 MSTORE PUSH1 0x4 ADD PUSH1 0x40 MLOAD DUP1 SWAP2 SUB SWAP1 REVERT JUMPDEST POP PUSH2 0xC41 JUMP JUMPDEST DUP3 PUSH1 0x3 ADD SLOAD DUP2 LT ISZERO PUSH2 0xC22 JUMPI CALLVALUE ISZERO PUSH2 0xB45 JUMPI PUSH1 0x40 MLOAD PUSH4 0x569E8C11 PUSH1 0xE0 SHL DUP2 MSTORE PUSH1 0x4 ADD PUSH1 0x40 MLOAD DUP1 SWAP2 SUB SWAP1 REVERT JUMPDEST PUSH1 0x0 DUP2 DUP5 PUSH1 0x3 ADD SLOAD PUSH2 0xB57 SWAP2 SWAP1 PUSH2 0x16F3 JUMP JUMPDEST DUP5 SLOAD PUSH1 0x40 MLOAD SWAP2 SWAP3 POP PUSH1 0x0 SWAP2 PUSH1 0x1 PUSH1 0x1 PUSH1 0xA0 SHL SUB SWAP1 SWAP2 AND SWAP1 DUP4 SWAP1 DUP4 DUP2 DUP2 DUP2 DUP6 DUP8 GAS CALL SWAP3 POP POP POP RETURNDATASIZE DUP1 PUSH1 0x0 DUP2 EQ PUSH2 0xBA8 JUMPI PUSH1 0x40 MLOAD SWAP2 POP PUSH1 0x1F NOT PUSH1 0x3F RETURNDATASIZE ADD AND DUP3 ADD PUSH1 0x40 MSTORE RETURNDATASIZE DUP3 MSTORE RETURNDATASIZE PUSH1 0x0 PUSH1 0x20 DUP5 ADD RETURNDATACOPY PUSH2 0xBAD JUMP JUMPDEST PUSH1 0x60 SWAP2 POP JUMPDEST POP POP SWAP1 POP DUP1 PUSH2 0xBCE JUMPI PUSH1 0x40 MLOAD PUSH3 0x461BCD PUSH1 0xE5 SHL DUP2 MSTORE PUSH1 0x4 ADD PUSH2 0x2EA SWAP1 PUSH2 0x166E JUMP JUMPDEST DUP5 SLOAD PUSH1 0x1 DUP7 ADD SLOAD PUSH1 0x40 DUP1 MLOAD DUP6 DUP2 MSTORE TIMESTAMP PUSH1 0x20 DUP3 ADD MSTORE PUSH1 0x1 PUSH1 0x1 PUSH1 0xA0 SHL SUB SWAP1 SWAP4 AND SWAP3 DUP12 SWAP2 PUSH32 0x6439E865EE376C5838016F9097A569E02081CC1429E58D8A2E17C312088040D0 SWAP2 ADD PUSH1 0x40 MLOAD DUP1 SWAP2 SUB SWAP1 LOG4 POP POP PUSH2 0xC41 JUMP JUMPDEST CALLVALUE ISZERO PUSH2 0xC41 JUMPI PUSH1 0x40 MLOAD PUSH4 0x569E8C11 PUSH1 0xE0 SHL DUP2 MSTORE PUSH1 0x4 ADD PUSH1 0x40 MLOAD DUP1 SWAP2 SUB SWAP1 REVERT JUMPDEST PUSH1 0x2 DUP4 ADD DUP6 SWAP1 SSTORE PUSH1 0x3 DUP4 ADD DUP2 SWAP1 SSTORE DUP3 SLOAD PUSH1 0x1 DUP5 ADD SLOAD PUSH1 0x40 DUP1 MLOAD DUP8 DUP2 MSTORE PUSH1 0x20 DUP2 ADD DUP10 SWAP1 MSTORE SWAP1 DUP2 ADD DUP5 SWAP1 MSTORE TIMESTAMP PUSH1 0x60 DUP3 ADD MSTORE PUSH1 0x1 PUSH1 0x1 PUSH1 0xA0 SHL SUB SWAP1 SWAP3 AND SWAP2 DUP9 SWAP1 PUSH32 0xB91C89A71088A2FD065AB33206CE7F570B0351387071AC12599D9AF2975EE46A SWAP1 PUSH1 0x80 ADD JUMPDEST PUSH1 0x40 MLOAD DUP1 SWAP2 SUB SWAP1 LOG4 POP POP POP POP POP POP JUMP JUMPDEST PUSH1 0x0 DUP3 DUP2 MSTORE PUSH1 0x1 PUSH1 0x20 MSTORE PUSH1 0x40 SWAP1 KECCAK256 DUP1 SLOAD PUSH1 0x1 PUSH1 0x1 PUSH1 0xA0 SHL SUB AND PUSH2 0xCED JUMPI PUSH1 0x40 MLOAD PUSH4 0xE46E219 PUSH1 0xE2 SHL DUP2 MSTORE PUSH1 0x4 DUP2 ADD DUP5 SWAP1 MSTORE PUSH1 0x24 ADD PUSH2 0x2EA JUMP JUMPDEST PUSH1 0x0 PUSH1 0x4 DUP1 DUP4 ADD SLOAD PUSH1 0xFF AND SWAP1 DUP2 GT ISZERO PUSH2 0xD08 JUMPI PUSH2 0xD08 PUSH2 0x14FF JUMP JUMPDEST EQ PUSH2 0xD29 JUMPI PUSH1 0x40 MLOAD PUSH4 0x6316069 PUSH1 0xE4 SHL DUP2 MSTORE PUSH1 0x4 DUP2 ADD DUP5 SWAP1 MSTORE PUSH1 0x24 ADD PUSH2 0x2EA JUMP JUMPDEST PUSH1 0x1 DUP2 ADD SLOAD PUSH1 0x0 SWAP1 DUP2 MSTORE PUSH1 0x20 DUP2 SWAP1 MSTORE PUSH1 0x40 SWAP1 KECCAK256 DUP1 SLOAD PUSH1 0x1 PUSH1 0x1 PUSH1 0xA0 SHL SUB AND PUSH2 0xD6C JUMPI DUP2 PUSH1 0x1 ADD SLOAD PUSH1 0x40 MLOAD PUSH4 0x45ABFFA9 PUSH1 0xE0 SHL DUP2 MSTORE PUSH1 0x4 ADD PUSH2 0x2EA SWAP2 DUP2 MSTORE PUSH1 0x20 ADD SWAP1 JUMP JUMPDEST DUP1 SLOAD PUSH1 0x1 PUSH1 0x1 PUSH1 0xA0 SHL SUB AND CALLER EQ PUSH2 0xD95 JUMPI PUSH1 0x40 MLOAD PUSH3 0x82B429 PUSH1 0xE8 SHL DUP2 MSTORE PUSH1 0x4 ADD PUSH1 0x40 MLOAD DUP1 SWAP2 SUB SWAP1 REVERT JUMPDEST PUSH1 0x4 DUP3 ADD DUP1 SLOAD PUSH1 0xFF NOT AND PUSH1 0x2 OR SWAP1 SSTORE PUSH1 0x1 DUP3 ADD SLOAD PUSH1 0x40 DUP1 MLOAD DUP6 DUP2 MSTORE TIMESTAMP PUSH1 0x20 DUP3 ADD MSTORE CALLER SWAP3 SWAP2 DUP8 SWAP2 PUSH32 0x26B3A8DB7DF0B9B8EE2BC5BD0DFA7F41EC06321C82F4D32EFCB0D8D79BB13DB SWAP2 ADD PUSH1 0x40 MLOAD DUP1 SWAP2 SUB SWAP1 LOG4 DUP2 SLOAD PUSH1 0x3 DUP4 ADD SLOAD PUSH1 0x40 MLOAD PUSH1 0x0 SWAP3 PUSH1 0x1 PUSH1 0x1 PUSH1 0xA0 SHL SUB AND SWAP2 SWAP1 DUP4 DUP2 DUP2 DUP2 DUP6 DUP8 GAS CALL SWAP3 POP POP POP RETURNDATASIZE DUP1 PUSH1 0x0 DUP2 EQ PUSH2 0xE36 JUMPI PUSH1 0x40 MLOAD SWAP2 POP PUSH1 0x1F NOT PUSH1 0x3F RETURNDATASIZE ADD AND DUP3 ADD PUSH1 0x40 MSTORE RETURNDATASIZE DUP3 MSTORE RETURNDATASIZE PUSH1 0x0 PUSH1 0x20 DUP5 ADD RETURNDATACOPY PUSH2 0xE3B JUMP JUMPDEST PUSH1 0x60 SWAP2 POP JUMPDEST POP POP SWAP1 POP DUP1 PUSH2 0xE5C JUMPI PUSH1 0x40 MLOAD PUSH3 0x461BCD PUSH1 0xE5 SHL DUP2 MSTORE PUSH1 0x4 ADD PUSH2 0x2EA SWAP1 PUSH2 0x166E JUMP JUMPDEST DUP3 SLOAD PUSH1 0x1 DUP5 ADD SLOAD PUSH1 0x3 DUP6 ADD SLOAD PUSH1 0x40 DUP1 MLOAD SWAP2 DUP3 MSTORE TIMESTAMP PUSH1 0x20 DUP4 ADD MSTORE PUSH1 0x1 PUSH1 0x1 PUSH1 0xA0 SHL SUB SWAP1 SWAP4 AND SWAP3 DUP9 SWAP2 PUSH32 0x6439E865EE376C5838016F9097A569E02081CC1429E58D8A2E17C312088040D0 SWAP2 ADD PUSH2 0x822 JUMP JUMPDEST PUSH1 0x0 DUP4 DUP2 MSTORE PUSH1 0x20 DUP2 SWAP1 MSTORE PUSH1 0x40 SWAP1 KECCAK256 DUP1 SLOAD PUSH1 0x1 PUSH1 0x1 PUSH1 0xA0 SHL SUB AND PUSH2 0xEE4 JUMPI PUSH1 0x40 MLOAD PUSH4 0x45ABFFA9 PUSH1 0xE0 SHL DUP2 MSTORE PUSH1 0x4 DUP2 ADD DUP6 SWAP1 MSTORE PUSH1 0x24 ADD PUSH2 0x2EA JUMP JUMPDEST PUSH1 0x0 PUSH1 0x5 DUP3 ADD SLOAD PUSH1 0xFF AND PUSH1 0x2 DUP2 GT ISZERO PUSH2 0xEFF JUMPI PUSH2 0xEFF PUSH2 0x14FF JUMP JUMPDEST EQ PUSH2 0xF20 JUMPI PUSH1 0x40 MLOAD PUSH4 0x27704561 PUSH1 0xE1 SHL DUP2 MSTORE PUSH1 0x4 DUP2 ADD DUP6 SWAP1 MSTORE PUSH1 0x24 ADD PUSH2 0x2EA JUMP JUMPDEST DUP1 SLOAD PUSH1 0x1 PUSH1 0x1 PUSH1 0xA0 SHL SUB AND CALLER EQ PUSH2 0xF49 JUMPI PUSH1 0x40 MLOAD PUSH3 0x82B429 PUSH1 0xE8 SHL DUP2 MSTORE PUSH1 0x4 ADD PUSH1 0x40 MLOAD DUP1 SWAP2 SUB SWAP1 REVERT JUMPDEST PUSH1 0x2 DUP2 ADD DUP4 SWAP1 SSTORE PUSH1 0x3 DUP2 ADD SLOAD PUSH1 0x4 DUP3 ADD SLOAD PUSH1 0x40 DUP1 MLOAD DUP7 DUP2 MSTORE PUSH1 0x20 DUP2 ADD SWAP4 SWAP1 SWAP4 MSTORE DUP3 ADD MSTORE TIMESTAMP PUSH1 0x60 DUP3 ADD MSTORE DUP3 SWAP1 CALLER SWAP1 DUP7 SWAP1 PUSH32 0x85D1A18C7260B362E617D88F5CAD220118A71523B566162BB27E3F573ACC2878 SWAP1 PUSH1 0x80 ADD PUSH2 0x4A9 JUMP JUMPDEST PUSH1 0x0 DUP2 DUP2 MSTORE PUSH1 0x1 PUSH1 0x20 MSTORE PUSH1 0x40 SWAP1 KECCAK256 DUP1 SLOAD PUSH1 0x1 PUSH1 0x1 PUSH1 0xA0 SHL SUB AND PUSH2 0xFDB JUMPI PUSH1 0x40 MLOAD PUSH4 0xE46E219 PUSH1 0xE2 SHL DUP2 MSTORE PUSH1 0x4 DUP2 ADD DUP4 SWAP1 MSTORE PUSH1 0x24 ADD PUSH2 0x2EA JUMP JUMPDEST PUSH1 0x0 PUSH1 0x4 DUP1 DUP4 ADD SLOAD PUSH1 0xFF AND SWAP1 DUP2 GT ISZERO PUSH2 0xFF6 JUMPI PUSH2 0xFF6 PUSH2 0x14FF JUMP JUMPDEST EQ PUSH2 0x1017 JUMPI PUSH1 0x40 MLOAD PUSH4 0x6316069 PUSH1 0xE4 SHL DUP2 MSTORE PUSH1 0x4 DUP2 ADD DUP4 SWAP1 MSTORE PUSH1 0x24 ADD PUSH2 0x2EA JUMP JUMPDEST PUSH1 0x1 DUP2 ADD SLOAD PUSH1 0x0 SWAP1 DUP2 MSTORE PUSH1 0x20 DUP2 SWAP1 MSTORE PUSH1 0x40 SWAP1 KECCAK256 DUP1 SLOAD PUSH1 0x1 PUSH1 0x1 PUSH1 0xA0 SHL SUB AND PUSH2 0x105A JUMPI DUP2 PUSH1 0x1 ADD SLOAD PUSH1 0x40 MLOAD PUSH4 0x45ABFFA9 PUSH1 0xE0 SHL DUP2 MSTORE PUSH1 0x4 ADD PUSH2 0x2EA SWAP2 DUP2 MSTORE PUSH1 0x20 ADD SWAP1 JUMP JUMPDEST DUP1 SLOAD PUSH1 0x1 PUSH1 0x1 PUSH1 0xA0 SHL SUB AND CALLER EQ PUSH2 0x1083 JUMPI PUSH1 0x40 MLOAD PUSH3 0x82B429 PUSH1 0xE8 SHL DUP2 MSTORE PUSH1 0x4 ADD PUSH1 0x40 MLOAD DUP1 SWAP2 SUB SWAP1 REVERT JUMPDEST PUSH1 0x4 DUP3 DUP2 ADD DUP1 SLOAD PUSH1 0xFF NOT AND PUSH1 0x1 OR SWAP1 SSTORE PUSH1 0x2 DUP4 ADD SLOAD SWAP1 DUP3 ADD DUP1 SLOAD PUSH1 0x0 SWAP1 PUSH2 0x10AB SWAP1 DUP5 SWAP1 PUSH2 0x16F3 JUMP JUMPDEST SWAP1 SWAP2 SSTORE POP POP PUSH1 0x4 DUP2 ADD SLOAD PUSH1 0x0 SUB PUSH2 0x1107 JUMPI PUSH1 0x5 DUP2 ADD DUP1 SLOAD PUSH1 0xFF DUP2 AND SWAP2 PUSH1 0x1 SWAP2 PUSH1 0xFF NOT AND DUP3 DUP1 MUL OR SWAP1 SSTORE POP PUSH1 0x1 DUP1 DUP5 ADD SLOAD PUSH1 0x40 MLOAD CALLER SWAP3 PUSH1 0x0 DUP1 MLOAD PUSH1 0x20 PUSH2 0x1707 DUP4 CODECOPY DUP2 MLOAD SWAP2 MSTORE SWAP2 PUSH2 0x10FD SWAP2 DUP7 SWAP2 TIMESTAMP SWAP1 PUSH2 0x1697 JUMP JUMPDEST PUSH1 0x40 MLOAD DUP1 SWAP2 SUB SWAP1 LOG3 POP JUMPDEST DUP1 SLOAD PUSH1 0x3 DUP4 ADD SLOAD PUSH1 0x40 MLOAD PUSH1 0x0 SWAP3 PUSH1 0x1 PUSH1 0x1 PUSH1 0xA0 SHL SUB AND SWAP2 SWAP1 DUP4 DUP2 DUP2 DUP2 DUP6 DUP8 GAS CALL SWAP3 POP POP POP RETURNDATASIZE DUP1 PUSH1 0x0 DUP2 EQ PUSH2 0x1157 JUMPI PUSH1 0x40 MLOAD SWAP2 POP PUSH1 0x1F NOT PUSH1 0x3F RETURNDATASIZE ADD AND DUP3 ADD PUSH1 0x40 MSTORE RETURNDATASIZE DUP3 MSTORE RETURNDATASIZE PUSH1 0x0 PUSH1 0x20 DUP5 ADD RETURNDATACOPY PUSH2 0x115C JUMP JUMPDEST PUSH1 0x60 SWAP2 POP JUMPDEST POP POP SWAP1 POP DUP1 PUSH2 0x117D JUMPI PUSH1 0x40 MLOAD PUSH3 0x461BCD PUSH1 0xE5 SHL DUP2 MSTORE PUSH1 0x4 ADD PUSH2 0x2EA SWAP1 PUSH2 0x166E JUMP JUMPDEST DUP2 SLOAD PUSH1 0x1 DUP5 ADD SLOAD DUP5 SLOAD PUSH1 0x3 DUP7 ADD SLOAD PUSH1 0x40 DUP1 MLOAD PUSH1 0x1 PUSH1 0x1 PUSH1 0xA0 SHL SUB SWAP4 DUP5 AND DUP2 MSTORE PUSH1 0x20 DUP2 ADD SWAP3 SWAP1 SWAP3 MSTORE TIMESTAMP SWAP1 DUP3 ADD MSTORE SWAP3 AND SWAP2 DUP7 SWAP1 PUSH32 0xAEBFB5A1655C21C7CD5797000B0AAA4C60E18197D3690751BF037C9DE30B24F SWAP1 PUSH1 0x60 ADD PUSH2 0x4A9 JUMP JUMPDEST PUSH1 0x0 DUP4 DUP2 MSTORE PUSH1 0x20 DUP2 SWAP1 MSTORE PUSH1 0x40 SWAP1 KECCAK256 DUP1 SLOAD PUSH1 0x1 PUSH1 0x1 PUSH1 0xA0 SHL SUB AND PUSH2 0x1211 JUMPI PUSH1 0x40 MLOAD PUSH4 0x45ABFFA9 PUSH1 0xE0 SHL DUP2 MSTORE PUSH1 0x4 DUP2 ADD DUP6 SWAP1 MSTORE PUSH1 0x24 ADD PUSH2 0x2EA JUMP JUMPDEST DUP1 SLOAD PUSH1 0x1 PUSH1 0x1 PUSH1 0xA0 SHL SUB AND CALLER EQ PUSH2 0x123A JUMPI PUSH1 0x40 MLOAD PUSH3 0x82B429 PUSH1 0xE8 SHL DUP2 MSTORE PUSH1 0x4 ADD PUSH1 0x40 MLOAD DUP1 SWAP2 SUB SWAP1 REVERT JUMPDEST DUP3 PUSH1 0x2 DUP2 GT ISZERO PUSH2 0x124C JUMPI PUSH2 0x124C PUSH2 0x14FF JUMP JUMPDEST PUSH1 0x5 DUP3 ADD SLOAD PUSH1 0xFF AND PUSH1 0x2 DUP2 GT ISZERO PUSH2 0x1265 JUMPI PUSH2 0x1265 PUSH2 0x14FF JUMP JUMPDEST SUB PUSH2 0x1283 JUMPI PUSH1 0x40 MLOAD PUSH4 0x88BD323 PUSH1 0xE1 SHL DUP2 MSTORE PUSH1 0x4 ADD PUSH1 0x40 MLOAD DUP1 SWAP2 SUB SWAP1 REVERT JUMPDEST PUSH1 0x5 DUP2 ADD DUP1 SLOAD PUSH1 0xFF DUP2 AND SWAP2 DUP6 SWAP2 PUSH1 0xFF NOT AND PUSH1 0x1 DUP4 PUSH1 0x2 DUP2 GT ISZERO PUSH2 0x12A8 JUMPI PUSH2 0x12A8 PUSH2 0x14FF JUMP JUMPDEST MUL OR SWAP1 SSTORE POP CALLER PUSH1 0x1 PUSH1 0x1 PUSH1 0xA0 SHL SUB AND DUP6 PUSH1 0x0 DUP1 MLOAD PUSH1 0x20 PUSH2 0x1707 DUP4 CODECOPY DUP2 MLOAD SWAP2 MSTORE DUP4 DUP8 TIMESTAMP PUSH1 0x40 MLOAD PUSH2 0x12D9 SWAP4 SWAP3 SWAP2 SWAP1 PUSH2 0x1697 JUMP JUMPDEST PUSH1 0x40 MLOAD DUP1 SWAP2 SUB SWAP1 LOG3 PUSH1 0x2 DUP5 PUSH1 0x2 DUP2 GT ISZERO PUSH2 0x12F5 JUMPI PUSH2 0x12F5 PUSH2 0x14FF JUMP JUMPDEST SUB PUSH2 0x1337 JUMPI DUP3 CALLER PUSH1 0x1 PUSH1 0x1 PUSH1 0xA0 SHL SUB AND DUP7 PUSH32 0xC49830EDDDD743B706185085849AC6DA0AE4F347FE23CA8747D28C64CD8E801F TIMESTAMP PUSH1 0x40 MLOAD PUSH2 0x822 SWAP2 DUP2 MSTORE PUSH1 0x20 ADD SWAP1 JUMP JUMPDEST POP POP POP POP POP JUMP JUMPDEST PUSH1 0x0 DUP4 DUP2 MSTORE PUSH1 0x20 DUP2 SWAP1 MSTORE PUSH1 0x40 SWAP1 KECCAK256 DUP1 SLOAD PUSH1 0x1 PUSH1 0x1 PUSH1 0xA0 SHL SUB AND PUSH2 0x1377 JUMPI PUSH1 0x40 MLOAD PUSH4 0x45ABFFA9 PUSH1 0xE0 SHL DUP2 MSTORE PUSH1 0x4 DUP2 ADD DUP6 SWAP1 MSTORE PUSH1 0x24 ADD PUSH2 0x2EA JUMP JUMPDEST PUSH1 0x0 PUSH1 0x5 DUP3 ADD SLOAD PUSH1 0xFF AND PUSH1 0x2 DUP2 GT ISZERO PUSH2 0x1392 JUMPI PUSH2 0x1392 PUSH2 0x14FF JUMP JUMPDEST EQ PUSH2 0x13B3 JUMPI PUSH1 0x40 MLOAD PUSH4 0x27704561 PUSH1 0xE1 SHL DUP2 MSTORE PUSH1 0x4 DUP2 ADD DUP6 SWAP1 MSTORE PUSH1 0x24 ADD PUSH2 0x2EA JUMP JUMPDEST DUP1 SLOAD PUSH1 0x1 PUSH1 0x1 PUSH1 0xA0 SHL SUB AND CALLER EQ PUSH2 0x13DC JUMPI PUSH1 0x40 MLOAD PUSH3 0x82B429 PUSH1 0xE8 SHL DUP2 MSTORE PUSH1 0x4 ADD PUSH1 0x40 MLOAD DUP1 SWAP2 SUB SWAP1 REVERT JUMPDEST PUSH1 0x0 DUP2 PUSH1 0x4 ADD SLOAD DUP3 PUSH1 0x3 ADD SLOAD PUSH2 0x13F2 SWAP2 SWAP1 PUSH2 0x16F3 JUMP JUMPDEST SWAP1 POP DUP4 ISZERO DUP1 PUSH2 0x1400 JUMPI POP DUP1 DUP5 LT JUMPDEST ISZERO PUSH2 0x141E JUMPI PUSH1 0x40 MLOAD PUSH4 0x524F409B PUSH1 0xE0 SHL DUP2 MSTORE PUSH1 0x4 ADD PUSH1 0x40 MLOAD DUP1 SWAP2 SUB SWAP1 REVERT JUMPDEST PUSH1 0x3 DUP3 ADD DUP1 SLOAD SWAP1 DUP6 SWAP1 SSTORE PUSH2 0x1432 DUP3 DUP7 PUSH2 0x16F3 JUMP JUMPDEST PUSH1 0x4 DUP5 ADD SSTORE PUSH1 0x40 DUP1 MLOAD DUP3 DUP2 MSTORE PUSH1 0x20 DUP2 ADD DUP8 SWAP1 MSTORE TIMESTAMP DUP2 DUP4 ADD MSTORE SWAP1 MLOAD CALLER SWAP2 DUP7 SWAP2 DUP10 SWAP2 PUSH32 0x5E81A6A5B7885F1621A4843794C781BDE94059EE8C9DFC0CC4C7FE09D5BD5045 SWAP2 SWAP1 DUP2 SWAP1 SUB PUSH1 0x60 ADD SWAP1 LOG4 PUSH1 0x2 DUP4 ADD SLOAD PUSH1 0x3 DUP5 ADD SLOAD PUSH1 0x4 DUP6 ADD SLOAD PUSH1 0x40 DUP1 MLOAD SWAP4 DUP5 MSTORE PUSH1 0x20 DUP5 ADD SWAP3 SWAP1 SWAP3 MSTORE SWAP1 DUP3 ADD MSTORE TIMESTAMP PUSH1 0x60 DUP3 ADD MSTORE PUSH14 0x746F74616C5F7175616E74697479 PUSH1 0x90 SHL SWAP1 CALLER SWAP1 DUP9 SWAP1 PUSH32 0x85D1A18C7260B362E617D88F5CAD220118A71523B566162BB27E3F573ACC2878 SWAP1 PUSH1 0x80 ADD PUSH2 0xCA4 JUMP JUMPDEST PUSH1 0x0 PUSH1 0x20 DUP3 DUP5 SUB SLT ISZERO PUSH2 0x14F8 JUMPI PUSH1 0x0 DUP1 REVERT JUMPDEST POP CALLDATALOAD SWAP2 SWAP1 POP JUMP JUMPDEST PUSH4 0x4E487B71 PUSH1 0xE0 SHL PUSH1 0x0 MSTORE PUSH1 0x21 PUSH1 0x4 MSTORE PUSH1 0x24 PUSH1 0x0 REVERT JUMPDEST PUSH1 0x1 PUSH1 0x1 PUSH1 0xA0 SHL SUB DUP7 AND DUP2 MSTORE PUSH1 0x20 DUP2 ADD DUP6 SWAP1 MSTORE PUSH1 0x40 DUP2 ADD DUP5 SWAP1 MSTORE PUSH1 0x60 DUP2 ADD DUP4 SWAP1 MSTORE PUSH1 0xA0 DUP2 ADD PUSH1 0x5 DUP4 LT PUSH2 0x154A JUMPI PUSH2 0x154A PUSH2 0x14FF JUMP JUMPDEST DUP3 PUSH1 0x80 DUP4 ADD MSTORE SWAP7 SWAP6 POP POP POP POP POP POP JUMP JUMPDEST PUSH1 0x0 DUP1 PUSH1 0x0 DUP1 PUSH1 0x80 DUP6 DUP8 SUB SLT ISZERO PUSH2 0x1570 JUMPI PUSH1 0x0 DUP1 REVERT JUMPDEST POP POP DUP3 CALLDATALOAD SWAP5 PUSH1 0x20 DUP5 ADD CALLDATALOAD SWAP5 POP PUSH1 0x40 DUP5 ADD CALLDATALOAD SWAP4 PUSH1 0x60 ADD CALLDATALOAD SWAP3 POP SWAP1 POP JUMP JUMPDEST PUSH1 0x0 DUP1 PUSH1 0x0 PUSH1 0x60 DUP5 DUP7 SUB SLT ISZERO PUSH2 0x15A1 JUMPI PUSH1 0x0 DUP1 REVERT JUMPDEST POP POP DUP2 CALLDATALOAD SWAP4 PUSH1 0x20 DUP4 ADD CALLDATALOAD SWAP4 POP PUSH1 0x40 SWAP1 SWAP3 ADD CALLDATALOAD SWAP2 SWAP1 POP JUMP JUMPDEST PUSH1 0x0 DUP1 PUSH1 0x40 DUP4 DUP6 SUB SLT ISZERO PUSH2 0x15CB JUMPI PUSH1 0x0 DUP1 REVERT JUMPDEST POP POP DUP1 CALLDATALOAD SWAP3 PUSH1 0x20 SWAP1 SWAP2 ADD CALLDATALOAD SWAP2 POP JUMP JUMPDEST PUSH1 0x3 DUP2 LT PUSH2 0x15EA JUMPI PUSH2 0x15EA PUSH2 0x14FF JUMP JUMPDEST SWAP1 MSTORE JUMP JUMPDEST PUSH1 0x1 PUSH1 0x1 PUSH1 0xA0 SHL SUB DUP8 AND DUP2 MSTORE PUSH1 0x20 DUP2 ADD DUP7 SWAP1 MSTORE PUSH1 0x40 DUP2 ADD DUP6 SWAP1 MSTORE PUSH1 0x60 DUP2 ADD DUP5 SWAP1 MSTORE PUSH1 0x80 DUP2 ADD DUP4 SWAP1 MSTORE PUSH1 0xC0 DUP2 ADD PUSH2 0x1627 PUSH1 0xA0 DUP4 ADD DUP5 PUSH2 0x15DA JUMP JUMPDEST SWAP8 SWAP7 POP POP POP POP POP POP POP JUMP JUMPDEST PUSH1 0x0 DUP1 PUSH1 0x0 PUSH1 0x60 DUP5 DUP7 SUB SLT ISZERO PUSH2 0x1647 JUMPI PUSH1 0x0 DUP1 REVERT JUMPDEST DUP4 CALLDATALOAD SWAP3 POP PUSH1 0x20 DUP5 ADD CALLDATALOAD PUSH1 0x3 DUP2 LT PUSH2 0x165D JUMPI PUSH1 0x0 DUP1 REVERT JUMPDEST SWAP3 SWAP6 SWAP3 SWAP5 POP POP POP PUSH1 0x40 SWAP2 SWAP1 SWAP2 ADD CALLDATALOAD SWAP1 JUMP JUMPDEST PUSH1 0x20 DUP1 DUP3 MSTORE PUSH1 0xF SWAP1 DUP3 ADD MSTORE PUSH15 0x151C985B9CD9995C8819985A5B1959 PUSH1 0x8A SHL PUSH1 0x40 DUP3 ADD MSTORE PUSH1 0x60 ADD SWAP1 JUMP JUMPDEST PUSH1 0x60 DUP2 ADD PUSH2 0x16A5 DUP3 DUP7 PUSH2 0x15DA JUMP JUMPDEST PUSH2 0x16B2 PUSH1 0x20 DUP4 ADD DUP6 PUSH2 0x15DA JUMP JUMPDEST DUP3 PUSH1 0x40 DUP4 ADD MSTORE SWAP5 SWAP4 POP POP POP POP JUMP JUMPDEST PUSH4 0x4E487B71 PUSH1 0xE0 SHL PUSH1 0x0 MSTORE PUSH1 0x11 PUSH1 0x4 MSTORE PUSH1 0x24 PUSH1 0x0 REVERT JUMPDEST DUP1 DUP3 MUL DUP2 ISZERO DUP3 DUP3 DIV DUP5 EQ OR PUSH2 0x16ED JUMPI PUSH2 0x16ED PUSH2 0x16C0 JUMP JUMPDEST SWAP3 SWAP2 POP POP JUMP JUMPDEST DUP2 DUP2 SUB DUP2 DUP2 GT ISZERO PUSH2 0x16ED JUMPI PUSH2 0x16ED PUSH2 0x16C0 JUMP INVALID 0xCD 0xF ADD 0xB0 0x2B 0xE9 0xC1 0xD1 0xCB DUP2 BYTE SGT 0x23 PUSH21 0x34200CD689CD8EE17BF92DBB5DB324606CF5A26469 PUSH17 0x667358221220E9166D8775D54A11AD639A 0xC 0xB1 CODESIZE SAR MSIZE PUSH32 0xEC7380A9B1A2C548A7EBBCB9D8076764736F6C634300081A0033000000000000 "},"methodIdentifiers":{"acceptOffer(bytes32)":"b596a15e","adjustListingQuantity(bytes32,uint256,bytes32)":"fb3bcaa1","cancelListing(bytes32)":"9299e552","createListing(bytes32,bytes32,uint256,uint256)":"558ae740","expireOffer(bytes32)":"3db102b1","listings(bytes32)":"c18b8db4","offers(bytes32)":"474d3ff0","placeOffer(bytes32,bytes32,uint256)":"7a6097b0","rejectOffer(bytes32,bytes32)":"a22b299e","setListingStatus(bytes32,uint8,bytes32)":"f8279bb7","updateListing(bytes32,uint256,bytes32)":"b2530e98","updateOffer(bytes32,uint256,bytes32)":"9fd0f290"}}}}}