{
  "_format": "hh-sol-artifact-1",
  "contractName": "DPP",
  "sourceName": "contracts/DPP.sol",
  "abi": [
    {
      "inputs": [
        {
          "internalType": "bytes32",
          "name": "passportId",
          "type": "bytes32"
        }
      ],
      "name": "PassportAlreadyExists",
      "type": "error"
    },
    {
      "inputs": [
        {
          "internalType": "bytes32",
          "name": "passportId",
          "type": "bytes32"
        }
      ],
      "name": "PassportNotFound",
      "type": "error"
    },
    {
      "anonymous": false,
      "inputs": [
        {
          "indexed": true,
          "internalType": "bytes32",
          "name": "passportId",
          "type": "bytes32"
        },
        {
          "indexed": false,
          "internalType": "string",
          "name": "batchId",
          "type": "string"
        },
        {
          "indexed": false,
          "internalType": "string",
          "name": "product",
          "type": "string"
        },
        {
          "indexed": false,
          "internalType": "string",
          "name": "origin",
          "type": "string"
        }
      ],
      "name": "PassportCreated",
      "type": "event"
    },
    {
      "anonymous": false,
      "inputs": [
        {
          "indexed": true,
          "internalType": "bytes32",
          "name": "passportId",
          "type": "bytes32"
        },
        {
          "indexed": false,
          "internalType": "bool",
          "name": "active",
          "type": "bool"
        }
      ],
      "name": "PassportStatusUpdated",
      "type": "event"
    },
    {
      "inputs": [
        {
          "internalType": "bytes32",
          "name": "passportId",
          "type": "bytes32"
        },
        {
          "internalType": "string",
          "name": "batchId",
          "type": "string"
        },
        {
          "internalType": "string",
          "name": "product",
          "type": "string"
        },
        {
          "internalType": "string",
          "name": "origin",
          "type": "string"
        }
      ],
      "name": "createPassport",
      "outputs": [],
      "stateMutability": "nonpayable",
      "type": "function"
    },
    {
      "inputs": [
        {
          "internalType": "bytes32",
          "name": "passportId",
          "type": "bytes32"
        }
      ],
      "name": "getPassport",
      "outputs": [
        {
          "components": [
            {
              "internalType": "string",
              "name": "batchId",
              "type": "string"
            },
            {
              "internalType": "string",
              "name": "product",
              "type": "string"
            },
            {
              "internalType": "string",
              "name": "origin",
              "type": "string"
            },
            {
              "internalType": "bool",
              "name": "active",
              "type": "bool"
            },
            {
              "internalType": "uint256",
              "name": "createdAt",
              "type": "uint256"
            }
          ],
          "internalType": "struct DPP.Passport",
          "name": "",
          "type": "tuple"
        }
      ],
      "stateMutability": "view",
      "type": "function"
    },
    {
      "inputs": [
        {
          "internalType": "bytes32",
          "name": "passportId",
          "type": "bytes32"
        },
        {
          "internalType": "bool",
          "name": "active",
          "type": "bool"
        }
      ],
      "name": "setPassportStatus",
      "outputs": [],
      "stateMutability": "nonpayable",
      "type": "function"
    }
  ],
  "bytecode": "0x6080604052348015600f57600080fd5b506109278061001f6000396000f3fe608060405234801561001057600080fd5b50600436106100415760003560e01c80631e96e916146100465780639cb040df1461005b578063f227fa231461006e575b600080fd5b610059610054366004610563565b610097565b005b610059610069366004610613565b61024b565b61008161007c366004610648565b6102ce565b60405161008e91906106a7565b60405180910390f35b600087815260208190526040902060040154156100cf5760405163234db95360e21b8152600481018890526024015b60405180910390fd5b6040518060a0016040528087878080601f016020809104026020016040519081016040528093929190818152602001838380828437600092019190915250505090825250604080516020601f880181900481028201810190925286815291810191908790879081908401838280828437600092019190915250505090825250604080516020601f860181900481028201810190925284815291810191908590859081908401838280828437600092018290525093855250506001602080850191909152426040948501528b83528290525020815181906101af90826107c0565b50602082015160018201906101c490826107c0565b50604082015160028201906101d990826107c0565b50606082015160038201805460ff191691151591909117905560809091015160049091015560405187907fdd03bb314ce77902ca83695e2017fa8ae1e21d368a20a2a2c72856164b7c29869061023a908990899089908990899089906108a8565b60405180910390a250505050505050565b6000828152602081905260408120600481015490910361028157604051636893053760e01b8152600481018490526024016100c6565b60038101805460ff191683151590811790915560405190815283907ff722c3544602f3695dfdfcb6d4cbb238372495c88a04cf7c6a43c259aa2c29819060200160405180910390a2505050565b6103026040518060a00160405280606081526020016060815260200160608152602001600015158152602001600081525090565b600082815260208190526040808220815160a0810190925280548290829061032990610737565b80601f016020809104026020016040519081016040528092919081815260200182805461035590610737565b80156103a25780601f10610377576101008083540402835291602001916103a2565b820191906000526020600020905b81548152906001019060200180831161038557829003601f168201915b505050505081526020016001820180546103bb90610737565b80601f01602080910402602001604051908101604052809291908181526020018280546103e790610737565b80156104345780601f1061040957610100808354040283529160200191610434565b820191906000526020600020905b81548152906001019060200180831161041757829003601f168201915b5050505050815260200160028201805461044d90610737565b80601f016020809104026020016040519081016040528092919081815260200182805461047990610737565b80156104c65780601f1061049b576101008083540402835291602001916104c6565b820191906000526020600020905b8154815290600101906020018083116104a957829003601f168201915b5050509183525050600382015460ff1615156020820152600490910154604090910152608081015190915060000361051457604051636893053760e01b8152600481018490526024016100c6565b92915050565b60008083601f84011261052c57600080fd5b50813567ffffffffffffffff81111561054457600080fd5b60208301915083602082850101111561055c57600080fd5b9250929050565b60008060008060008060006080888a03121561057e57600080fd5b87359650602088013567ffffffffffffffff81111561059c57600080fd5b6105a88a828b0161051a565b909750955050604088013567ffffffffffffffff8111156105c857600080fd5b6105d48a828b0161051a565b909550935050606088013567ffffffffffffffff8111156105f457600080fd5b6106008a828b0161051a565b989b979a50959850939692959293505050565b6000806040838503121561062657600080fd5b823591506020830135801515811461063d57600080fd5b809150509250929050565b60006020828403121561065a57600080fd5b5035919050565b6000815180845260005b818110156106875760208185018101518683018201520161066b565b506000602082860101526020601f19601f83011685010191505092915050565b602081526000825160a060208401526106c360c0840182610661565b90506020840151601f198483030160408501526106e08282610661565b9150506040840151601f198483030160608501526106fe8282610661565b915050606084015115156080840152608084015160a08401528091505092915050565b634e487b7160e01b600052604160045260246000fd5b600181811c9082168061074b57607f821691505b60208210810361076b57634e487b7160e01b600052602260045260246000fd5b50919050565b601f8211156107bb57806000526020600020601f840160051c810160208510156107985750805b601f840160051c820191505b818110156107b857600081556001016107a4565b50505b505050565b815167ffffffffffffffff8111156107da576107da610721565b6107ee816107e88454610737565b84610771565b6020601f821160018114610822576000831561080a5750848201515b600019600385901b1c1916600184901b1784556107b8565b600084815260208120601f198516915b828110156108525787850151825560209485019460019092019101610832565b50848210156108705786840151600019600387901b60f8161c191681555b50505050600190811b01905550565b81835281816020850137506000828201602090810191909152601f909101601f19169091010190565b6060815260006108bc60608301888a61087f565b82810360208401526108cf81878961087f565b905082810360408401526108e481858761087f565b999850505050505050505056fea26469706673582212205cb97fbcde67e7e71e8147bbc0f5e451801be29f33f8858b16fdd1c88048eabd64736f6c634300081a0033",
  "linkReferences": {},
  "deployedLinkReferences": {}
}